{
  "contractName": "HorseToken",
  "abi": [
    {
      "inputs": [
        {
          "internalType": "string",
          "name": "uri",
          "type": "string"
        },
        {
          "internalType": "uint256[]",
          "name": "horseIds",
          "type": "uint256[]"
        },
        {
          "internalType": "uint256[]",
          "name": "horseCaps",
          "type": "uint256[]"
        }
      ],
      "stateMutability": "nonpayable",
      "type": "constructor"
    },
    {
      "inputs": [
        {
          "internalType": "address",
          "name": "sender",
          "type": "address"
        },
        {
          "internalType": "uint256",
          "name": "balance",
          "type": "uint256"
        },
        {
          "internalType": "uint256",
          "name": "needed",
          "type": "uint256"
        },
        {
          "internalType": "uint256",
          "name": "tokenId",
          "type": "uint256"
        }
      ],
      "name": "ERC1155InsufficientBalance",
      "type": "error"
    },
    {
      "inputs": [
        {
          "internalType": "address",
          "name": "approver",
          "type": "address"
        }
      ],
      "name": "ERC1155InvalidApprover",
      "type": "error"
    },
    {
      "inputs": [
        {
          "internalType": "uint256",
          "name": "idsLength",
          "type": "uint256"
        },
        {
          "internalType": "uint256",
          "name": "valuesLength",
          "type": "uint256"
        }
      ],
      "name": "ERC1155InvalidArrayLength",
      "type": "error"
    },
    {
      "inputs": [
        {
          "internalType": "address",
          "name": "operator",
          "type": "address"
        }
      ],
      "name": "ERC1155InvalidOperator",
      "type": "error"
    },
    {
      "inputs": [
        {
          "internalType": "address",
          "name": "receiver",
          "type": "address"
        }
      ],
      "name": "ERC1155InvalidReceiver",
      "type": "error"
    },
    {
      "inputs": [
        {
          "internalType": "address",
          "name": "sender",
          "type": "address"
        }
      ],
      "name": "ERC1155InvalidSender",
      "type": "error"
    },
    {
      "inputs": [
        {
          "internalType": "address",
          "name": "operator",
          "type": "address"
        },
        {
          "internalType": "address",
          "name": "owner",
          "type": "address"
        }
      ],
      "name": "ERC1155MissingApprovalForAll",
      "type": "error"
    },
    {
      "inputs": [
        {
          "internalType": "address",
          "name": "owner",
          "type": "address"
        }
      ],
      "name": "OwnableInvalidOwner",
      "type": "error"
    },
    {
      "inputs": [
        {
          "internalType": "address",
          "name": "account",
          "type": "address"
        }
      ],
      "name": "OwnableUnauthorizedAccount",
      "type": "error"
    },
    {
      "anonymous": false,
      "inputs": [
        {
          "indexed": true,
          "internalType": "address",
          "name": "account",
          "type": "address"
        },
        {
          "indexed": true,
          "internalType": "address",
          "name": "operator",
          "type": "address"
        },
        {
          "indexed": false,
          "internalType": "bool",
          "name": "approved",
          "type": "bool"
        }
      ],
      "name": "ApprovalForAll",
      "type": "event"
    },
    {
      "anonymous": false,
      "inputs": [
        {
          "indexed": true,
          "internalType": "address",
          "name": "previousOwner",
          "type": "address"
        },
        {
          "indexed": true,
          "internalType": "address",
          "name": "newOwner",
          "type": "address"
        }
      ],
      "name": "OwnershipTransferred",
      "type": "event"
    },
    {
      "anonymous": false,
      "inputs": [
        {
          "indexed": true,
          "internalType": "address",
          "name": "operator",
          "type": "address"
        },
        {
          "indexed": true,
          "internalType": "address",
          "name": "from",
          "type": "address"
        },
        {
          "indexed": true,
          "internalType": "address",
          "name": "to",
          "type": "address"
        },
        {
          "indexed": false,
          "internalType": "uint256[]",
          "name": "ids",
          "type": "uint256[]"
        },
        {
          "indexed": false,
          "internalType": "uint256[]",
          "name": "values",
          "type": "uint256[]"
        }
      ],
      "name": "TransferBatch",
      "type": "event"
    },
    {
      "anonymous": false,
      "inputs": [
        {
          "indexed": true,
          "internalType": "address",
          "name": "operator",
          "type": "address"
        },
        {
          "indexed": true,
          "internalType": "address",
          "name": "from",
          "type": "address"
        },
        {
          "indexed": true,
          "internalType": "address",
          "name": "to",
          "type": "address"
        },
        {
          "indexed": false,
          "internalType": "uint256",
          "name": "id",
          "type": "uint256"
        },
        {
          "indexed": false,
          "internalType": "uint256",
          "name": "value",
          "type": "uint256"
        }
      ],
      "name": "TransferSingle",
      "type": "event"
    },
    {
      "anonymous": false,
      "inputs": [
        {
          "indexed": false,
          "internalType": "string",
          "name": "value",
          "type": "string"
        },
        {
          "indexed": true,
          "internalType": "uint256",
          "name": "id",
          "type": "uint256"
        }
      ],
      "name": "URI",
      "type": "event"
    },
    {
      "inputs": [
        {
          "internalType": "address",
          "name": "account",
          "type": "address"
        },
        {
          "internalType": "uint256",
          "name": "id",
          "type": "uint256"
        }
      ],
      "name": "balanceOf",
      "outputs": [
        {
          "internalType": "uint256",
          "name": "",
          "type": "uint256"
        }
      ],
      "stateMutability": "view",
      "type": "function",
      "constant": true
    },
    {
      "inputs": [
        {
          "internalType": "address[]",
          "name": "accounts",
          "type": "address[]"
        },
        {
          "internalType": "uint256[]",
          "name": "ids",
          "type": "uint256[]"
        }
      ],
      "name": "balanceOfBatch",
      "outputs": [
        {
          "internalType": "uint256[]",
          "name": "",
          "type": "uint256[]"
        }
      ],
      "stateMutability": "view",
      "type": "function",
      "constant": true
    },
    {
      "inputs": [
        {
          "internalType": "uint256",
          "name": "",
          "type": "uint256"
        }
      ],
      "name": "horseSupply",
      "outputs": [
        {
          "internalType": "uint256",
          "name": "",
          "type": "uint256"
        }
      ],
      "stateMutability": "view",
      "type": "function",
      "constant": true
    },
    {
      "inputs": [
        {
          "internalType": "address",
          "name": "account",
          "type": "address"
        },
        {
          "internalType": "address",
          "name": "operator",
          "type": "address"
        }
      ],
      "name": "isApprovedForAll",
      "outputs": [
        {
          "internalType": "bool",
          "name": "",
          "type": "bool"
        }
      ],
      "stateMutability": "view",
      "type": "function",
      "constant": true
    },
    {
      "inputs": [
        {
          "internalType": "uint256",
          "name": "",
          "type": "uint256"
        }
      ],
      "name": "maxSupply",
      "outputs": [
        {
          "internalType": "uint256",
          "name": "",
          "type": "uint256"
        }
      ],
      "stateMutability": "view",
      "type": "function",
      "constant": true
    },
    {
      "inputs": [],
      "name": "owner",
      "outputs": [
        {
          "internalType": "address",
          "name": "",
          "type": "address"
        }
      ],
      "stateMutability": "view",
      "type": "function",
      "constant": true
    },
    {
      "inputs": [],
      "name": "renounceOwnership",
      "outputs": [],
      "stateMutability": "nonpayable",
      "type": "function"
    },
    {
      "inputs": [
        {
          "internalType": "address",
          "name": "from",
          "type": "address"
        },
        {
          "internalType": "address",
          "name": "to",
          "type": "address"
        },
        {
          "internalType": "uint256[]",
          "name": "ids",
          "type": "uint256[]"
        },
        {
          "internalType": "uint256[]",
          "name": "values",
          "type": "uint256[]"
        },
        {
          "internalType": "bytes",
          "name": "data",
          "type": "bytes"
        }
      ],
      "name": "safeBatchTransferFrom",
      "outputs": [],
      "stateMutability": "nonpayable",
      "type": "function"
    },
    {
      "inputs": [
        {
          "internalType": "address",
          "name": "from",
          "type": "address"
        },
        {
          "internalType": "address",
          "name": "to",
          "type": "address"
        },
        {
          "internalType": "uint256",
          "name": "id",
          "type": "uint256"
        },
        {
          "internalType": "uint256",
          "name": "value",
          "type": "uint256"
        },
        {
          "internalType": "bytes",
          "name": "data",
          "type": "bytes"
        }
      ],
      "name": "safeTransferFrom",
      "outputs": [],
      "stateMutability": "nonpayable",
      "type": "function"
    },
    {
      "inputs": [
        {
          "internalType": "address",
          "name": "operator",
          "type": "address"
        },
        {
          "internalType": "bool",
          "name": "approved",
          "type": "bool"
        }
      ],
      "name": "setApprovalForAll",
      "outputs": [],
      "stateMutability": "nonpayable",
      "type": "function"
    },
    {
      "inputs": [
        {
          "internalType": "bytes4",
          "name": "interfaceId",
          "type": "bytes4"
        }
      ],
      "name": "supportsInterface",
      "outputs": [
        {
          "internalType": "bool",
          "name": "",
          "type": "bool"
        }
      ],
      "stateMutability": "view",
      "type": "function",
      "constant": true
    },
    {
      "inputs": [],
      "name": "totalSupply",
      "outputs": [
        {
          "internalType": "uint256",
          "name": "",
          "type": "uint256"
        }
      ],
      "stateMutability": "view",
      "type": "function",
      "constant": true
    },
    {
      "inputs": [
        {
          "internalType": "address",
          "name": "newOwner",
          "type": "address"
        }
      ],
      "name": "transferOwnership",
      "outputs": [],
      "stateMutability": "nonpayable",
      "type": "function"
    },
    {
      "inputs": [
        {
          "internalType": "address",
          "name": "to",
          "type": "address"
        },
        {
          "internalType": "uint256",
          "name": "id",
          "type": "uint256"
        },
        {
          "internalType": "uint256",
          "name": "amount",
          "type": "uint256"
        }
      ],
      "name": "mint",
      "outputs": [],
      "stateMutability": "nonpayable",
      "type": "function"
    },
    {
      "inputs": [
        {
          "internalType": "uint256",
          "name": "_id",
          "type": "uint256"
        }
      ],
      "name": "uri",
      "outputs": [
        {
          "internalType": "string",
          "name": "",
          "type": "string"
        }
      ],
      "stateMutability": "view",
      "type": "function",
      "constant": true
    },
    {
      "inputs": [
        {
          "internalType": "string",
          "name": "newuri",
          "type": "string"
        }
      ],
      "name": "setURI",
      "outputs": [],
      "stateMutability": "nonpayable",
      "type": "function"
    }
  ],
  "bytecode": "0x608060405234801562000010575f80fd5b5060405162003f2438038062003f24833981810160405281019062000036919062000e76565b338362000049816200020f60201b60201c565b505f73ffffffffffffffffffffffffffffffffffffffff168173ffffffffffffffffffffffffffffffffffffffff1603620000bd575f6040517f1e4fbdf7000000000000000000000000000000000000000000000000000000008152600401620000b4919062000f6f565b60405180910390fd5b620000ce816200022460201b60201c565b50805182511462000116576040517f08c379a00000000000000000000000000000000000000000000000000000000081526004016200010d9062000fe8565b60405180910390fd5b5f5b825181101562000205575f83828151811062000139576200013862001008565b5b602002602001015190505f8383815181106200015a576200015962001008565b5b602002602001015190508060065f8481526020019081526020015f20819055505f6064600a836200018c919062001062565b620001989190620010d9565b9050620001bc33848360405180602001604052805f815250620002e760201b60201c565b8060055f8581526020019081526020015f20819055508060045f828254620001e5919062001110565b925050819055505050508080620001fc906200114a565b91505062000118565b50505050620017e5565b8060029081620002209190620013c4565b5050565b5f60035f9054906101000a900473ffffffffffffffffffffffffffffffffffffffff1690508160035f6101000a81548173ffffffffffffffffffffffffffffffffffffffff021916908373ffffffffffffffffffffffffffffffffffffffff1602179055508173ffffffffffffffffffffffffffffffffffffffff168173ffffffffffffffffffffffffffffffffffffffff167f8be0079c531659141344cd1fd0a4f28419497f9722a3daafe3b4186f6b6457e060405160405180910390a35050565b5f73ffffffffffffffffffffffffffffffffffffffff168473ffffffffffffffffffffffffffffffffffffffff16036200035a575f6040517f57f447ce00000000000000000000000000000000000000000000000000000000815260040162000351919062000f6f565b60405180910390fd5b5f806200036e85856200038f60201b60201c565b91509150620003875f87848487620003bf60201b60201c565b505050505050565b60608060405191506001825283602083015260408201905060018152826020820152604081016040529250929050565b620003d3858585856200049260201b60201c565b5f73ffffffffffffffffffffffffffffffffffffffff168473ffffffffffffffffffffffffffffffffffffffff16146200048b575f620004186200084c60201b60201c565b9050600184510362000472575f6200043a5f866200085360201b90919060201c565b90505f620004525f866200085360201b90919060201c565b90506200046a8389898585896200086660201b60201c565b505062000489565b6200048881878787878762000a2460201b60201c565b5b505b5050505050565b8051825114620004df57815181516040517f5b059991000000000000000000000000000000000000000000000000000000008152600401620004d6929190620014b9565b60405180910390fd5b5f620004f06200084c60201b60201c565b90505f5b835181101562000701575f6200051482866200085360201b90919060201c565b90505f6200052c83866200085360201b90919060201c565b90505f73ffffffffffffffffffffffffffffffffffffffff168873ffffffffffffffffffffffffffffffffffffffff161462000653575f805f8481526020019081526020015f205f8a73ffffffffffffffffffffffffffffffffffffffff1673ffffffffffffffffffffffffffffffffffffffff1681526020019081526020015f2054905081811015620005ff57888183856040517f03dee4c5000000000000000000000000000000000000000000000000000000008152600401620005f69493929190620014e4565b60405180910390fd5b8181035f808581526020019081526020015f205f8b73ffffffffffffffffffffffffffffffffffffffff1673ffffffffffffffffffffffffffffffffffffffff1681526020019081526020015f2081905550505b5f73ffffffffffffffffffffffffffffffffffffffff168773ffffffffffffffffffffffffffffffffffffffff1614620006eb57805f808481526020019081526020015f205f8973ffffffffffffffffffffffffffffffffffffffff1673ffffffffffffffffffffffffffffffffffffffff1681526020019081526020015f205f828254620006e3919062001110565b925050819055505b505080620006f9906200114a565b9050620004f4565b506001835103620007c4575f620007225f856200085360201b90919060201c565b90505f6200073a5f856200085360201b90919060201c565b90508573ffffffffffffffffffffffffffffffffffffffff168773ffffffffffffffffffffffffffffffffffffffff168473ffffffffffffffffffffffffffffffffffffffff167fc3d58168c5ae7397731d063d5bbf3d657854427343f4c083240f7aacaa2d0f628585604051620007b4929190620014b9565b60405180910390a4505062000845565b8373ffffffffffffffffffffffffffffffffffffffff168573ffffffffffffffffffffffffffffffffffffffff168273ffffffffffffffffffffffffffffffffffffffff167f4a39dc06d4c0dbc64b70af90fd698a233a518aa5d07e595d983b8c0526c8f7fb86866040516200083c929190620015f6565b60405180910390a45b5050505050565b5f33905090565b5f60208202602084010151905092915050565b5f8473ffffffffffffffffffffffffffffffffffffffff163b111562000a1c578373ffffffffffffffffffffffffffffffffffffffff1663f23a6e6187878686866040518663ffffffff1660e01b8152600401620008c995949392919062001689565b6020604051808303815f875af19250505080156200090757506040513d601f19601f8201168201806040525081019062000904919062001745565b60015b6200098e573d805f811462000938576040519150601f19603f3d011682016040523d82523d5f602084013e6200093d565b606091505b505f8151036200098657846040517f57f447ce0000000000000000000000000000000000000000000000000000000081526004016200097d919062000f6f565b60405180910390fd5b805181602001fd5b63f23a6e6160e01b7bffffffffffffffffffffffffffffffffffffffffffffffffffffffff1916817bffffffffffffffffffffffffffffffffffffffffffffffffffffffff19161462000a1a57846040517f57f447ce00000000000000000000000000000000000000000000000000000000815260040162000a11919062000f6f565b60405180910390fd5b505b505050505050565b5f8473ffffffffffffffffffffffffffffffffffffffff163b111562000bda578373ffffffffffffffffffffffffffffffffffffffff1663bc197c8187878686866040518663ffffffff1660e01b815260040162000a8795949392919062001775565b6020604051808303815f875af192505050801562000ac557506040513d601f19601f8201168201806040525081019062000ac2919062001745565b60015b62000b4c573d805f811462000af6576040519150601f19603f3d011682016040523d82523d5f602084013e62000afb565b606091505b505f81510362000b4457846040517f57f447ce00000000000000000000000000000000000000000000000000000000815260040162000b3b919062000f6f565b60405180910390fd5b805181602001fd5b63bc197c8160e01b7bffffffffffffffffffffffffffffffffffffffffffffffffffffffff1916817bffffffffffffffffffffffffffffffffffffffffffffffffffffffff19161462000bd857846040517f57f447ce00000000000000000000000000000000000000000000000000000000815260040162000bcf919062000f6f565b60405180910390fd5b505b505050505050565b5f604051905090565b5f80fd5b5f80fd5b5f80fd5b5f80fd5b5f601f19601f8301169050919050565b7f4e487b71000000000000000000000000000000000000000000000000000000005f52604160045260245ffd5b62000c438262000bfb565b810181811067ffffffffffffffff8211171562000c655762000c6462000c0b565b5b80604052505050565b5f62000c7962000be2565b905062000c87828262000c38565b919050565b5f67ffffffffffffffff82111562000ca95762000ca862000c0b565b5b62000cb48262000bfb565b9050602081019050919050565b5f5b8381101562000ce057808201518184015260208101905062000cc3565b5f8484015250505050565b5f62000d0162000cfb8462000c8c565b62000c6e565b90508281526020810184848401111562000d205762000d1f62000bf7565b5b62000d2d84828562000cc1565b509392505050565b5f82601f83011262000d4c5762000d4b62000bf3565b5b815162000d5e84826020860162000ceb565b91505092915050565b5f67ffffffffffffffff82111562000d845762000d8362000c0b565b5b602082029050602081019050919050565b5f80fd5b5f819050919050565b62000dad8162000d99565b811462000db8575f80fd5b50565b5f8151905062000dcb8162000da2565b92915050565b5f62000de762000de18462000d67565b62000c6e565b9050808382526020820190506020840283018581111562000e0d5762000e0c62000d95565b5b835b8181101562000e3a578062000e25888262000dbb565b84526020840193505060208101905062000e0f565b5050509392505050565b5f82601f83011262000e5b5762000e5a62000bf3565b5b815162000e6d84826020860162000dd1565b91505092915050565b5f805f6060848603121562000e905762000e8f62000beb565b5b5f84015167ffffffffffffffff81111562000eb05762000eaf62000bef565b5b62000ebe8682870162000d35565b935050602084015167ffffffffffffffff81111562000ee25762000ee162000bef565b5b62000ef08682870162000e44565b925050604084015167ffffffffffffffff81111562000f145762000f1362000bef565b5b62000f228682870162000e44565b9150509250925092565b5f73ffffffffffffffffffffffffffffffffffffffff82169050919050565b5f62000f578262000f2c565b9050919050565b62000f698162000f4b565b82525050565b5f60208201905062000f845f83018462000f5e565b92915050565b5f82825260208201905092915050565b7f4d69736d617463686564206172726179206c656e6774687300000000000000005f82015250565b5f62000fd060188362000f8a565b915062000fdd8262000f9a565b602082019050919050565b5f6020820190508181035f830152620010018162000fc2565b9050919050565b7f4e487b71000000000000000000000000000000000000000000000000000000005f52603260045260245ffd5b7f4e487b71000000000000000000000000000000000000000000000000000000005f52601160045260245ffd5b5f6200106e8262000d99565b91506200107b8362000d99565b92508282026200108b8162000d99565b91508282048414831517620010a557620010a462001035565b5b5092915050565b7f4e487b71000000000000000000000000000000000000000000000000000000005f52601260045260245ffd5b5f620010e58262000d99565b9150620010f28362000d99565b925082620011055762001104620010ac565b5b828204905092915050565b5f6200111c8262000d99565b9150620011298362000d99565b925082820190508082111562001144576200114362001035565b5b92915050565b5f620011568262000d99565b91507fffffffffffffffffffffffffffffffffffffffffffffffffffffffffffffffff82036200118b576200118a62001035565b5b600182019050919050565b5f81519050919050565b7f4e487b71000000000000000000000000000000000000000000000000000000005f52602260045260245ffd5b5f6002820490506001821680620011e557607f821691505b602082108103620011fb57620011fa620011a0565b5b50919050565b5f819050815f5260205f209050919050565b5f6020601f8301049050919050565b5f82821b905092915050565b5f600883026200125f7fffffffffffffffffffffffffffffffffffffffffffffffffffffffffffffffff8262001222565b6200126b868362001222565b95508019841693508086168417925050509392505050565b5f819050919050565b5f620012ac620012a6620012a08462000d99565b62001283565b62000d99565b9050919050565b5f819050919050565b620012c7836200128c565b620012df620012d682620012b3565b8484546200122e565b825550505050565b5f90565b620012f5620012e7565b62001302818484620012bc565b505050565b5b8181101562001329576200131d5f82620012eb565b60018101905062001308565b5050565b601f8211156200137857620013428162001201565b6200134d8462001213565b810160208510156200135d578190505b620013756200136c8562001213565b83018262001307565b50505b505050565b5f82821c905092915050565b5f6200139a5f19846008026200137d565b1980831691505092915050565b5f620013b4838362001389565b9150826002028217905092915050565b620013cf8262001196565b67ffffffffffffffff811115620013eb57620013ea62000c0b565b5b620013f78254620011cd565b620014048282856200132d565b5f60209050601f8311600181146200143a575f841562001425578287015190505b620014318582620013a7565b865550620014a0565b601f1984166200144a8662001201565b5f5b8281101562001473578489015182556001820191506020850194506020810190506200144c565b868310156200149357848901516200148f601f89168262001389565b8355505b6001600288020188555050505b505050505050565b620014b38162000d99565b82525050565b5f604082019050620014ce5f830185620014a8565b620014dd6020830184620014a8565b9392505050565b5f608082019050620014f95f83018762000f5e565b620015086020830186620014a8565b620015176040830185620014a8565b620015266060830184620014a8565b95945050505050565b5f81519050919050565b5f82825260208201905092915050565b5f819050602082019050919050565b620015638162000d99565b82525050565b5f62001576838362001558565b60208301905092915050565b5f602082019050919050565b5f6200159a826200152f565b620015a6818562001539565b9350620015b38362001549565b805f5b83811015620015e9578151620015cd888262001569565b9750620015da8362001582565b925050600181019050620015b6565b5085935050505092915050565b5f6040820190508181035f8301526200161081856200158e565b905081810360208301526200162681846200158e565b90509392505050565b5f81519050919050565b5f82825260208201905092915050565b5f62001655826200162f565b62001661818562001639565b93506200167381856020860162000cc1565b6200167e8162000bfb565b840191505092915050565b5f60a0820190506200169e5f83018862000f5e565b620016ad602083018762000f5e565b620016bc6040830186620014a8565b620016cb6060830185620014a8565b8181036080830152620016df818462001649565b90509695505050505050565b5f7fffffffff0000000000000000000000000000000000000000000000000000000082169050919050565b6200172181620016eb565b81146200172c575f80fd5b50565b5f815190506200173f8162001716565b92915050565b5f602082840312156200175d576200175c62000beb565b5b5f6200176c848285016200172f565b91505092915050565b5f60a0820190506200178a5f83018862000f5e565b62001799602083018762000f5e565b8181036040830152620017ad81866200158e565b90508181036060830152620017c381856200158e565b90508181036080830152620017d9818462001649565b90509695505050505050565b61273180620017f35f395ff3fe608060405234801561000f575f80fd5b50600436106100fd575f3560e01c80634e1273f411610095578063a22cb46511610064578063a22cb465146102bb578063e985e9c5146102d7578063f242432a14610307578063f2fde38b14610323576100fd565b80634e1273f414610233578063715018a614610263578063869f75941461026d5780638da5cb5b1461029d576100fd565b8063156e29f6116100d1578063156e29f6146101ad57806318160ddd146101c95780632eb2c2d6146101e75780632ed04a7914610203576100fd565b8062fdd58e1461010157806301ffc9a71461013157806302fe5305146101615780630e89341c1461017d575b5f80fd5b61011b600480360381019061011691906117d2565b61033f565b604051610128919061181f565b60405180910390f35b61014b6004803603810190610146919061188d565b610394565b60405161015891906118d2565b60405180910390f35b61017b60048036038101906101769190611a27565b610475565b005b61019760048036038101906101929190611a6e565b610489565b6040516101a49190611b13565b60405180910390f35b6101c760048036038101906101c29190611b33565b61049b565b005b6101d16104f9565b6040516101de919061181f565b60405180910390f35b61020160048036038101906101fc9190611ce5565b6104ff565b005b61021d60048036038101906102189190611a6e565b6105a6565b60405161022a919061181f565b60405180910390f35b61024d60048036038101906102489190611e70565b6105bb565b60405161025a9190611f9d565b60405180910390f35b61026b6106c8565b005b61028760048036038101906102829190611a6e565b6106db565b604051610294919061181f565b60405180910390f35b6102a56106f0565b6040516102b29190611fcc565b60405180910390f35b6102d560048036038101906102d0919061200f565b610718565b005b6102f160048036038101906102ec919061204d565b61072e565b6040516102fe91906118d2565b60405180910390f35b610321600480360381019061031c919061208b565b6107bc565b005b61033d6004803603810190610338919061211e565b610863565b005b5f805f8381526020019081526020015f205f8473ffffffffffffffffffffffffffffffffffffffff1673ffffffffffffffffffffffffffffffffffffffff1681526020019081526020015f2054905092915050565b5f7fd9b67a26000000000000000000000000000000000000000000000000000000007bffffffffffffffffffffffffffffffffffffffffffffffffffffffff1916827bffffffffffffffffffffffffffffffffffffffffffffffffffffffff1916148061045e57507f0e89341c000000000000000000000000000000000000000000000000000000007bffffffffffffffffffffffffffffffffffffffffffffffffffffffff1916827bffffffffffffffffffffffffffffffffffffffffffffffffffffffff1916145b8061046e575061046d826108e7565b5b9050919050565b61047d610950565b610486816109d7565b50565b6060610494826109ea565b9050919050565b6104b583838360405180602001604052805f815250610a7c565b8060045f8282546104c69190612176565b925050819055508060055f8481526020019081526020015f205f8282546104ed9190612176565b92505081905550505050565b60045481565b5f610508610b11565b90508073ffffffffffffffffffffffffffffffffffffffff168673ffffffffffffffffffffffffffffffffffffffff161415801561054d575061054b868261072e565b155b156105915780866040517fe237d9220000000000000000000000000000000000000000000000000000000081526004016105889291906121a9565b60405180910390fd5b61059e8686868686610b18565b505050505050565b6005602052805f5260405f205f915090505481565b6060815183511461060757815183516040517f5b0599910000000000000000000000000000000000000000000000000000000081526004016105fe9291906121d0565b60405180910390fd5b5f835167ffffffffffffffff81111561062357610622611903565b5b6040519080825280602002602001820160405280156106515781602001602082028036833780820191505090505b5090505f5b84518110156106bd5761068d6106758287610c0c90919063ffffffff16565b6106888387610c1f90919063ffffffff16565b61033f565b8282815181106106a05761069f6121f7565b5b602002602001018181525050806106b690612224565b9050610656565b508091505092915050565b6106d0610950565b6106d95f610c32565b565b6006602052805f5260405f205f915090505481565b5f60035f9054906101000a900473ffffffffffffffffffffffffffffffffffffffff16905090565b61072a610723610b11565b8383610cf5565b5050565b5f60015f8473ffffffffffffffffffffffffffffffffffffffff1673ffffffffffffffffffffffffffffffffffffffff1681526020019081526020015f205f8373ffffffffffffffffffffffffffffffffffffffff1673ffffffffffffffffffffffffffffffffffffffff1681526020019081526020015f205f9054906101000a900460ff16905092915050565b5f6107c5610b11565b90508073ffffffffffffffffffffffffffffffffffffffff168673ffffffffffffffffffffffffffffffffffffffff161415801561080a5750610808868261072e565b155b1561084e5780866040517fe237d9220000000000000000000000000000000000000000000000000000000081526004016108459291906121a9565b60405180910390fd5b61085b8686868686610e5e565b505050505050565b61086b610950565b5f73ffffffffffffffffffffffffffffffffffffffff168173ffffffffffffffffffffffffffffffffffffffff16036108db575f6040517f1e4fbdf70000000000000000000000000000000000000000000000000000000081526004016108d29190611fcc565b60405180910390fd5b6108e481610c32565b50565b5f7f01ffc9a7000000000000000000000000000000000000000000000000000000007bffffffffffffffffffffffffffffffffffffffffffffffffffffffff1916827bffffffffffffffffffffffffffffffffffffffffffffffffffffffff1916149050919050565b610958610b11565b73ffffffffffffffffffffffffffffffffffffffff166109766106f0565b73ffffffffffffffffffffffffffffffffffffffff16146109d557610999610b11565b6040517f118cdaa70000000000000000000000000000000000000000000000000000000081526004016109cc9190611fcc565b60405180910390fd5b565b80600290816109e69190612465565b5050565b6060600280546109f990612298565b80601f0160208091040260200160405190810160405280929190818152602001828054610a2590612298565b8015610a705780601f10610a4757610100808354040283529160200191610a70565b820191905f5260205f20905b815481529060010190602001808311610a5357829003601f168201915b50505050509050919050565b5f73ffffffffffffffffffffffffffffffffffffffff168473ffffffffffffffffffffffffffffffffffffffff1603610aec575f6040517f57f447ce000000000000000000000000000000000000000000000000000000008152600401610ae39190611fcc565b60405180910390fd5b5f80610af88585610f64565b91509150610b095f87848487610f94565b505050505050565b5f33905090565b5f73ffffffffffffffffffffffffffffffffffffffff168473ffffffffffffffffffffffffffffffffffffffff1603610b88575f6040517f57f447ce000000000000000000000000000000000000000000000000000000008152600401610b7f9190611fcc565b60405180910390fd5b5f73ffffffffffffffffffffffffffffffffffffffff168573ffffffffffffffffffffffffffffffffffffffff1603610bf8575f6040517f01a83514000000000000000000000000000000000000000000000000000000008152600401610bef9190611fcc565b60405180910390fd5b610c058585858585610f94565b5050505050565b5f60208202602084010151905092915050565b5f60208202602084010151905092915050565b5f60035f9054906101000a900473ffffffffffffffffffffffffffffffffffffffff1690508160035f6101000a81548173ffffffffffffffffffffffffffffffffffffffff021916908373ffffffffffffffffffffffffffffffffffffffff1602179055508173ffffffffffffffffffffffffffffffffffffffff168173ffffffffffffffffffffffffffffffffffffffff167f8be0079c531659141344cd1fd0a4f28419497f9722a3daafe3b4186f6b6457e060405160405180910390a35050565b5f73ffffffffffffffffffffffffffffffffffffffff168273ffffffffffffffffffffffffffffffffffffffff1603610d65575f6040517fced3e100000000000000000000000000000000000000000000000000000000008152600401610d5c9190611fcc565b60405180910390fd5b8060015f8573ffffffffffffffffffffffffffffffffffffffff1673ffffffffffffffffffffffffffffffffffffffff1681526020019081526020015f205f8473ffffffffffffffffffffffffffffffffffffffff1673ffffffffffffffffffffffffffffffffffffffff1681526020019081526020015f205f6101000a81548160ff0219169083151502179055508173ffffffffffffffffffffffffffffffffffffffff168373ffffffffffffffffffffffffffffffffffffffff167f17307eab39ab6107e8899845ad3d59bd9653f200f220920489ca2b5937696c3183604051610e5191906118d2565b60405180910390a3505050565b5f73ffffffffffffffffffffffffffffffffffffffff168473ffffffffffffffffffffffffffffffffffffffff1603610ece575f6040517f57f447ce000000000000000000000000000000000000000000000000000000008152600401610ec59190611fcc565b60405180910390fd5b5f73ffffffffffffffffffffffffffffffffffffffff168573ffffffffffffffffffffffffffffffffffffffff1603610f3e575f6040517f01a83514000000000000000000000000000000000000000000000000000000008152600401610f359190611fcc565b60405180910390fd5b5f80610f4a8585610f64565b91509150610f5b8787848487610f94565b50505050505050565b60608060405191506001825283602083015260408201905060018152826020820152604081016040529250929050565b610fa085858585611040565b5f73ffffffffffffffffffffffffffffffffffffffff168473ffffffffffffffffffffffffffffffffffffffff1614611039575f610fdc610b11565b90506001845103611028575f610ffb5f86610c1f90919063ffffffff16565b90505f6110115f86610c1f90919063ffffffff16565b90506110218389898585896113d6565b5050611037565b611036818787878787611585565b5b505b5050505050565b805182511461108a57815181516040517f5b0599910000000000000000000000000000000000000000000000000000000081526004016110819291906121d0565b60405180910390fd5b5f611093610b11565b90505f5b8351811015611295575f6110b48286610c1f90919063ffffffff16565b90505f6110ca8386610c1f90919063ffffffff16565b90505f73ffffffffffffffffffffffffffffffffffffffff168873ffffffffffffffffffffffffffffffffffffffff16146111ed575f805f8481526020019081526020015f205f8a73ffffffffffffffffffffffffffffffffffffffff1673ffffffffffffffffffffffffffffffffffffffff1681526020019081526020015f205490508181101561119957888183856040517f03dee4c50000000000000000000000000000000000000000000000000000000081526004016111909493929190612534565b60405180910390fd5b8181035f808581526020019081526020015f205f8b73ffffffffffffffffffffffffffffffffffffffff1673ffffffffffffffffffffffffffffffffffffffff1681526020019081526020015f2081905550505b5f73ffffffffffffffffffffffffffffffffffffffff168773ffffffffffffffffffffffffffffffffffffffff161461128257805f808481526020019081526020015f205f8973ffffffffffffffffffffffffffffffffffffffff1673ffffffffffffffffffffffffffffffffffffffff1681526020019081526020015f205f82825461127a9190612176565b925050819055505b50508061128e90612224565b9050611097565b506001835103611350575f6112b35f85610c1f90919063ffffffff16565b90505f6112c95f85610c1f90919063ffffffff16565b90508573ffffffffffffffffffffffffffffffffffffffff168773ffffffffffffffffffffffffffffffffffffffff168473ffffffffffffffffffffffffffffffffffffffff167fc3d58168c5ae7397731d063d5bbf3d657854427343f4c083240f7aacaa2d0f6285856040516113419291906121d0565b60405180910390a450506113cf565b8373ffffffffffffffffffffffffffffffffffffffff168573ffffffffffffffffffffffffffffffffffffffff168273ffffffffffffffffffffffffffffffffffffffff167f4a39dc06d4c0dbc64b70af90fd698a233a518aa5d07e595d983b8c0526c8f7fb86866040516113c6929190612577565b60405180910390a45b5050505050565b5f8473ffffffffffffffffffffffffffffffffffffffff163b111561157d578373ffffffffffffffffffffffffffffffffffffffff1663f23a6e6187878686866040518663ffffffff1660e01b81526004016114369594939291906125fe565b6020604051808303815f875af192505050801561147157506040513d601f19601f8201168201806040525081019061146e919061266a565b60015b6114f2573d805f811461149f576040519150601f19603f3d011682016040523d82523d5f602084013e6114a4565b606091505b505f8151036114ea57846040517f57f447ce0000000000000000000000000000000000000000000000000000000081526004016114e19190611fcc565b60405180910390fd5b805181602001fd5b63f23a6e6160e01b7bffffffffffffffffffffffffffffffffffffffffffffffffffffffff1916817bffffffffffffffffffffffffffffffffffffffffffffffffffffffff19161461157b57846040517f57f447ce0000000000000000000000000000000000000000000000000000000081526004016115729190611fcc565b60405180910390fd5b505b505050505050565b5f8473ffffffffffffffffffffffffffffffffffffffff163b111561172c578373ffffffffffffffffffffffffffffffffffffffff1663bc197c8187878686866040518663ffffffff1660e01b81526004016115e5959493929190612695565b6020604051808303815f875af192505050801561162057506040513d601f19601f8201168201806040525081019061161d919061266a565b60015b6116a1573d805f811461164e576040519150601f19603f3d011682016040523d82523d5f602084013e611653565b606091505b505f81510361169957846040517f57f447ce0000000000000000000000000000000000000000000000000000000081526004016116909190611fcc565b60405180910390fd5b805181602001fd5b63bc197c8160e01b7bffffffffffffffffffffffffffffffffffffffffffffffffffffffff1916817bffffffffffffffffffffffffffffffffffffffffffffffffffffffff19161461172a57846040517f57f447ce0000000000000000000000000000000000000000000000000000000081526004016117219190611fcc565b60405180910390fd5b505b505050505050565b5f604051905090565b5f80fd5b5f80fd5b5f73ffffffffffffffffffffffffffffffffffffffff82169050919050565b5f61176e82611745565b9050919050565b61177e81611764565b8114611788575f80fd5b50565b5f8135905061179981611775565b92915050565b5f819050919050565b6117b18161179f565b81146117bb575f80fd5b50565b5f813590506117cc816117a8565b92915050565b5f80604083850312156117e8576117e761173d565b5b5f6117f58582860161178b565b9250506020611806858286016117be565b9150509250929050565b6118198161179f565b82525050565b5f6020820190506118325f830184611810565b92915050565b5f7fffffffff0000000000000000000000000000000000000000000000000000000082169050919050565b61186c81611838565b8114611876575f80fd5b50565b5f8135905061188781611863565b92915050565b5f602082840312156118a2576118a161173d565b5b5f6118af84828501611879565b91505092915050565b5f8115159050919050565b6118cc816118b8565b82525050565b5f6020820190506118e55f8301846118c3565b92915050565b5f80fd5b5f80fd5b5f601f19601f8301169050919050565b7f4e487b71000000000000000000000000000000000000000000000000000000005f52604160045260245ffd5b611939826118f3565b810181811067ffffffffffffffff8211171561195857611957611903565b5b80604052505050565b5f61196a611734565b90506119768282611930565b919050565b5f67ffffffffffffffff82111561199557611994611903565b5b61199e826118f3565b9050602081019050919050565b828183375f83830152505050565b5f6119cb6119c68461197b565b611961565b9050828152602081018484840111156119e7576119e66118ef565b5b6119f28482856119ab565b509392505050565b5f82601f830112611a0e57611a0d6118eb565b5b8135611a1e8482602086016119b9565b91505092915050565b5f60208284031215611a3c57611a3b61173d565b5b5f82013567ffffffffffffffff811115611a5957611a58611741565b5b611a65848285016119fa565b91505092915050565b5f60208284031215611a8357611a8261173d565b5b5f611a90848285016117be565b91505092915050565b5f81519050919050565b5f82825260208201905092915050565b5f5b83811015611ad0578082015181840152602081019050611ab5565b5f8484015250505050565b5f611ae582611a99565b611aef8185611aa3565b9350611aff818560208601611ab3565b611b08816118f3565b840191505092915050565b5f6020820190508181035f830152611b2b8184611adb565b905092915050565b5f805f60608486031215611b4a57611b4961173d565b5b5f611b578682870161178b565b9350506020611b68868287016117be565b9250506040611b79868287016117be565b9150509250925092565b5f67ffffffffffffffff821115611b9d57611b9c611903565b5b602082029050602081019050919050565b5f80fd5b5f611bc4611bbf84611b83565b611961565b90508083825260208201905060208402830185811115611be757611be6611bae565b5b835b81811015611c105780611bfc88826117be565b845260208401935050602081019050611be9565b5050509392505050565b5f82601f830112611c2e57611c2d6118eb565b5b8135611c3e848260208601611bb2565b91505092915050565b5f67ffffffffffffffff821115611c6157611c60611903565b5b611c6a826118f3565b9050602081019050919050565b5f611c89611c8484611c47565b611961565b905082815260208101848484011115611ca557611ca46118ef565b5b611cb08482856119ab565b509392505050565b5f82601f830112611ccc57611ccb6118eb565b5b8135611cdc848260208601611c77565b91505092915050565b5f805f805f60a08688031215611cfe57611cfd61173d565b5b5f611d0b8882890161178b565b9550506020611d1c8882890161178b565b945050604086013567ffffffffffffffff811115611d3d57611d3c611741565b5b611d4988828901611c1a565b935050606086013567ffffffffffffffff811115611d6a57611d69611741565b5b611d7688828901611c1a565b925050608086013567ffffffffffffffff811115611d9757611d96611741565b5b611da388828901611cb8565b9150509295509295909350565b5f67ffffffffffffffff821115611dca57611dc9611903565b5b602082029050602081019050919050565b5f611ded611de884611db0565b611961565b90508083825260208201905060208402830185811115611e1057611e0f611bae565b5b835b81811015611e395780611e25888261178b565b845260208401935050602081019050611e12565b5050509392505050565b5f82601f830112611e5757611e566118eb565b5b8135611e67848260208601611ddb565b91505092915050565b5f8060408385031215611e8657611e8561173d565b5b5f83013567ffffffffffffffff811115611ea357611ea2611741565b5b611eaf85828601611e43565b925050602083013567ffffffffffffffff811115611ed057611ecf611741565b5b611edc85828601611c1a565b9150509250929050565b5f81519050919050565b5f82825260208201905092915050565b5f819050602082019050919050565b611f188161179f565b82525050565b5f611f298383611f0f565b60208301905092915050565b5f602082019050919050565b5f611f4b82611ee6565b611f558185611ef0565b9350611f6083611f00565b805f5b83811015611f90578151611f778882611f1e565b9750611f8283611f35565b925050600181019050611f63565b5085935050505092915050565b5f6020820190508181035f830152611fb58184611f41565b905092915050565b611fc681611764565b82525050565b5f602082019050611fdf5f830184611fbd565b92915050565b611fee816118b8565b8114611ff8575f80fd5b50565b5f8135905061200981611fe5565b92915050565b5f80604083850312156120255761202461173d565b5b5f6120328582860161178b565b925050602061204385828601611ffb565b9150509250929050565b5f80604083850312156120635761206261173d565b5b5f6120708582860161178b565b92505060206120818582860161178b565b9150509250929050565b5f805f805f60a086880312156120a4576120a361173d565b5b5f6120b18882890161178b565b95505060206120c28882890161178b565b94505060406120d3888289016117be565b93505060606120e4888289016117be565b925050608086013567ffffffffffffffff81111561210557612104611741565b5b61211188828901611cb8565b9150509295509295909350565b5f602082840312156121335761213261173d565b5b5f6121408482850161178b565b91505092915050565b7f4e487b71000000000000000000000000000000000000000000000000000000005f52601160045260245ffd5b5f6121808261179f565b915061218b8361179f565b92508282019050808211156121a3576121a2612149565b5b92915050565b5f6040820190506121bc5f830185611fbd565b6121c96020830184611fbd565b9392505050565b5f6040820190506121e35f830185611810565b6121f06020830184611810565b9392505050565b7f4e487b71000000000000000000000000000000000000000000000000000000005f52603260045260245ffd5b5f61222e8261179f565b91507fffffffffffffffffffffffffffffffffffffffffffffffffffffffffffffffff82036122605761225f612149565b5b600182019050919050565b7f4e487b71000000000000000000000000000000000000000000000000000000005f52602260045260245ffd5b5f60028204905060018216806122af57607f821691505b6020821081036122c2576122c161226b565b5b50919050565b5f819050815f5260205f209050919050565b5f6020601f8301049050919050565b5f82821b905092915050565b5f600883026123247fffffffffffffffffffffffffffffffffffffffffffffffffffffffffffffffff826122e9565b61232e86836122e9565b95508019841693508086168417925050509392505050565b5f819050919050565b5f61236961236461235f8461179f565b612346565b61179f565b9050919050565b5f819050919050565b6123828361234f565b61239661238e82612370565b8484546122f5565b825550505050565b5f90565b6123aa61239e565b6123b5818484612379565b505050565b5b818110156123d8576123cd5f826123a2565b6001810190506123bb565b5050565b601f82111561241d576123ee816122c8565b6123f7846122da565b81016020851015612406578190505b61241a612412856122da565b8301826123ba565b50505b505050565b5f82821c905092915050565b5f61243d5f1984600802612422565b1980831691505092915050565b5f612455838361242e565b9150826002028217905092915050565b61246e82611a99565b67ffffffffffffffff81111561248757612486611903565b5b6124918254612298565b61249c8282856123dc565b5f60209050601f8311600181146124cd575f84156124bb578287015190505b6124c5858261244a565b86555061252c565b601f1984166124db866122c8565b5f5b82811015612502578489015182556001820191506020850194506020810190506124dd565b8683101561251f578489015161251b601f89168261242e565b8355505b6001600288020188555050505b505050505050565b5f6080820190506125475f830187611fbd565b6125546020830186611810565b6125616040830185611810565b61256e6060830184611810565b95945050505050565b5f6040820190508181035f83015261258f8185611f41565b905081810360208301526125a38184611f41565b90509392505050565b5f81519050919050565b5f82825260208201905092915050565b5f6125d0826125ac565b6125da81856125b6565b93506125ea818560208601611ab3565b6125f3816118f3565b840191505092915050565b5f60a0820190506126115f830188611fbd565b61261e6020830187611fbd565b61262b6040830186611810565b6126386060830185611810565b818103608083015261264a81846125c6565b90509695505050505050565b5f8151905061266481611863565b92915050565b5f6020828403121561267f5761267e61173d565b5b5f61268c84828501612656565b91505092915050565b5f60a0820190506126a85f830188611fbd565b6126b56020830187611fbd565b81810360408301526126c78186611f41565b905081810360608301526126db8185611f41565b905081810360808301526126ef81846125c6565b9050969550505050505056fea2646970667358221220249b2201544674b0a81f7ce55bf36f2d6b2daf755a97065d70627b9d57a500dc64736f6c63430008150033",
  "immutableReferences": {},
  "source": "// Place this content into: ~/SodaPop/contracts/HorseToken.sol\n\n// SPDX-License-Identifier: MIT\npragma solidity ^0.8.0;\n\nimport \"@openzeppelin/contracts/token/ERC1155/ERC1155.sol\";\nimport \"@openzeppelin/contracts/access/Ownable.sol\";\n\ncontract HorseToken is ERC1155, Ownable {\n    uint256 public totalSupply;\n    mapping(uint256 => uint256) public horseSupply;\n    mapping(uint256 => uint256) public maxSupply;\n\nconstructor(\n    string memory uri,\n    uint256[] memory horseIds,\n    uint256[] memory horseCaps\n) ERC1155(uri) Ownable(msg.sender) {\n    require(horseIds.length == horseCaps.length, \"Mismatched array lengths\");\n    for (uint256 i = 0; i < horseIds.length; i++) {\n        uint256 id = horseIds[i];\n        uint256 cap = horseCaps[i];\n        maxSupply[id] = cap;\n        uint256 companyStake = (cap * 10) / 100;\n        _mint(msg.sender, id, companyStake, \"\");\n        horseSupply[id] = companyStake;\n        totalSupply += companyStake;\n    }\n}\n\n    function mint(address to, uint256 id, uint256 amount) public {\n        _mint(to, id, amount, \"\");\n        totalSupply += amount;\n        horseSupply[id] += amount;\n    }\n\n    function uri(uint256 _id) public view override returns (string memory) {\n        return super.uri(_id);\n    }\n\n    function setURI(string memory newuri) external onlyOwner {\n        _setURI(newuri);\n    }\n}\n",
  "sourcePath": "/Users/alexanderhaire/SodaPop/contracts/HorseToken.sol",
  "compiler": {
    "name": "solc",
    "version": "0.8.21+commit.d9974bed.Emscripten.clang"
  },
  "schemaVersion": "3.4.16",
  "updatedAt": "2025-06-06T02:57:29.920Z",
  "networkType": "ethereum",
  "devdoc": {
    "errors": {
      "ERC1155InsufficientBalance(address,uint256,uint256,uint256)": [
        {
          "details": "Indicates an error related to the current `balance` of a `sender`. Used in transfers.",
          "params": {
            "balance": "Current balance for the interacting account.",
            "needed": "Minimum amount required to perform a transfer.",
            "sender": "Address whose tokens are being transferred.",
            "tokenId": "Identifier number of a token."
          }
        }
      ],
      "ERC1155InvalidApprover(address)": [
        {
          "details": "Indicates a failure with the `approver` of a token to be approved. Used in approvals.",
          "params": {
            "approver": "Address initiating an approval operation."
          }
        }
      ],
      "ERC1155InvalidArrayLength(uint256,uint256)": [
        {
          "details": "Indicates an array length mismatch between ids and values in a safeBatchTransferFrom operation. Used in batch transfers.",
          "params": {
            "idsLength": "Length of the array of token identifiers",
            "valuesLength": "Length of the array of token amounts"
          }
        }
      ],
      "ERC1155InvalidOperator(address)": [
        {
          "details": "Indicates a failure with the `operator` to be approved. Used in approvals.",
          "params": {
            "operator": "Address that may be allowed to operate on tokens without being their owner."
          }
        }
      ],
      "ERC1155InvalidReceiver(address)": [
        {
          "details": "Indicates a failure with the token `receiver`. Used in transfers.",
          "params": {
            "receiver": "Address to which tokens are being transferred."
          }
        }
      ],
      "ERC1155InvalidSender(address)": [
        {
          "details": "Indicates a failure with the token `sender`. Used in transfers.",
          "params": {
            "sender": "Address whose tokens are being transferred."
          }
        }
      ],
      "ERC1155MissingApprovalForAll(address,address)": [
        {
          "details": "Indicates a failure with the `operator`s approval. Used in transfers.",
          "params": {
            "operator": "Address that may be allowed to operate on tokens without being their owner.",
            "owner": "Address of the current owner of a token."
          }
        }
      ],
      "OwnableInvalidOwner(address)": [
        {
          "details": "The owner is not a valid owner account. (eg. `address(0)`)"
        }
      ],
      "OwnableUnauthorizedAccount(address)": [
        {
          "details": "The caller account is not authorized to perform an operation."
        }
      ]
    },
    "events": {
      "ApprovalForAll(address,address,bool)": {
        "details": "Emitted when `account` grants or revokes permission to `operator` to transfer their tokens, according to `approved`."
      },
      "TransferBatch(address,address,address,uint256[],uint256[])": {
        "details": "Equivalent to multiple {TransferSingle} events, where `operator`, `from` and `to` are the same for all transfers."
      },
      "TransferSingle(address,address,address,uint256,uint256)": {
        "details": "Emitted when `value` amount of tokens of type `id` are transferred from `from` to `to` by `operator`."
      },
      "URI(string,uint256)": {
        "details": "Emitted when the URI for token type `id` changes to `value`, if it is a non-programmatic URI. If an {URI} event was emitted for `id`, the standard https://eips.ethereum.org/EIPS/eip-1155#metadata-extensions[guarantees] that `value` will equal the value returned by {IERC1155MetadataURI-uri}."
      }
    },
    "kind": "dev",
    "methods": {
      "balanceOf(address,uint256)": {
        "details": "See {IERC1155-balanceOf}."
      },
      "balanceOfBatch(address[],uint256[])": {
        "details": "See {IERC1155-balanceOfBatch}. Requirements: - `accounts` and `ids` must have the same length."
      },
      "isApprovedForAll(address,address)": {
        "details": "See {IERC1155-isApprovedForAll}."
      },
      "owner()": {
        "details": "Returns the address of the current owner."
      },
      "renounceOwnership()": {
        "details": "Leaves the contract without owner. It will not be possible to call `onlyOwner` functions. Can only be called by the current owner. NOTE: Renouncing ownership will leave the contract without an owner, thereby disabling any functionality that is only available to the owner."
      },
      "safeBatchTransferFrom(address,address,uint256[],uint256[],bytes)": {
        "details": "See {IERC1155-safeBatchTransferFrom}."
      },
      "safeTransferFrom(address,address,uint256,uint256,bytes)": {
        "details": "See {IERC1155-safeTransferFrom}."
      },
      "setApprovalForAll(address,bool)": {
        "details": "See {IERC1155-setApprovalForAll}."
      },
      "supportsInterface(bytes4)": {
        "details": "See {IERC165-supportsInterface}."
      },
      "transferOwnership(address)": {
        "details": "Transfers ownership of the contract to a new account (`newOwner`). Can only be called by the current owner."
      }
    },
    "version": 1
  },
  "userdoc": {
    "kind": "user",
    "methods": {},
    "version": 1
  }
}