{
  "contractName": "HorseToken",
  "abi": [
    {
      "inputs": [
        {
          "internalType": "string",
          "name": "uri",
          "type": "string"
        }
      ],
      "stateMutability": "nonpayable",
      "type": "constructor"
    },
    {
      "inputs": [
        {
          "internalType": "address",
          "name": "sender",
          "type": "address"
        },
        {
          "internalType": "uint256",
          "name": "balance",
          "type": "uint256"
        },
        {
          "internalType": "uint256",
          "name": "needed",
          "type": "uint256"
        },
        {
          "internalType": "uint256",
          "name": "tokenId",
          "type": "uint256"
        }
      ],
      "name": "ERC1155InsufficientBalance",
      "type": "error"
    },
    {
      "inputs": [
        {
          "internalType": "address",
          "name": "approver",
          "type": "address"
        }
      ],
      "name": "ERC1155InvalidApprover",
      "type": "error"
    },
    {
      "inputs": [
        {
          "internalType": "uint256",
          "name": "idsLength",
          "type": "uint256"
        },
        {
          "internalType": "uint256",
          "name": "valuesLength",
          "type": "uint256"
        }
      ],
      "name": "ERC1155InvalidArrayLength",
      "type": "error"
    },
    {
      "inputs": [
        {
          "internalType": "address",
          "name": "operator",
          "type": "address"
        }
      ],
      "name": "ERC1155InvalidOperator",
      "type": "error"
    },
    {
      "inputs": [
        {
          "internalType": "address",
          "name": "receiver",
          "type": "address"
        }
      ],
      "name": "ERC1155InvalidReceiver",
      "type": "error"
    },
    {
      "inputs": [
        {
          "internalType": "address",
          "name": "sender",
          "type": "address"
        }
      ],
      "name": "ERC1155InvalidSender",
      "type": "error"
    },
    {
      "inputs": [
        {
          "internalType": "address",
          "name": "operator",
          "type": "address"
        },
        {
          "internalType": "address",
          "name": "owner",
          "type": "address"
        }
      ],
      "name": "ERC1155MissingApprovalForAll",
      "type": "error"
    },
    {
      "inputs": [
        {
          "internalType": "address",
          "name": "owner",
          "type": "address"
        }
      ],
      "name": "OwnableInvalidOwner",
      "type": "error"
    },
    {
      "inputs": [
        {
          "internalType": "address",
          "name": "account",
          "type": "address"
        }
      ],
      "name": "OwnableUnauthorizedAccount",
      "type": "error"
    },
    {
      "anonymous": false,
      "inputs": [
        {
          "indexed": true,
          "internalType": "address",
          "name": "account",
          "type": "address"
        },
        {
          "indexed": true,
          "internalType": "address",
          "name": "operator",
          "type": "address"
        },
        {
          "indexed": false,
          "internalType": "bool",
          "name": "approved",
          "type": "bool"
        }
      ],
      "name": "ApprovalForAll",
      "type": "event"
    },
    {
      "anonymous": false,
      "inputs": [
        {
          "indexed": true,
          "internalType": "address",
          "name": "previousOwner",
          "type": "address"
        },
        {
          "indexed": true,
          "internalType": "address",
          "name": "newOwner",
          "type": "address"
        }
      ],
      "name": "OwnershipTransferred",
      "type": "event"
    },
    {
      "anonymous": false,
      "inputs": [
        {
          "indexed": true,
          "internalType": "address",
          "name": "operator",
          "type": "address"
        },
        {
          "indexed": true,
          "internalType": "address",
          "name": "from",
          "type": "address"
        },
        {
          "indexed": true,
          "internalType": "address",
          "name": "to",
          "type": "address"
        },
        {
          "indexed": false,
          "internalType": "uint256[]",
          "name": "ids",
          "type": "uint256[]"
        },
        {
          "indexed": false,
          "internalType": "uint256[]",
          "name": "values",
          "type": "uint256[]"
        }
      ],
      "name": "TransferBatch",
      "type": "event"
    },
    {
      "anonymous": false,
      "inputs": [
        {
          "indexed": true,
          "internalType": "address",
          "name": "operator",
          "type": "address"
        },
        {
          "indexed": true,
          "internalType": "address",
          "name": "from",
          "type": "address"
        },
        {
          "indexed": true,
          "internalType": "address",
          "name": "to",
          "type": "address"
        },
        {
          "indexed": false,
          "internalType": "uint256",
          "name": "id",
          "type": "uint256"
        },
        {
          "indexed": false,
          "internalType": "uint256",
          "name": "value",
          "type": "uint256"
        }
      ],
      "name": "TransferSingle",
      "type": "event"
    },
    {
      "anonymous": false,
      "inputs": [
        {
          "indexed": false,
          "internalType": "string",
          "name": "value",
          "type": "string"
        },
        {
          "indexed": true,
          "internalType": "uint256",
          "name": "id",
          "type": "uint256"
        }
      ],
      "name": "URI",
      "type": "event"
    },
    {
      "inputs": [
        {
          "internalType": "address",
          "name": "account",
          "type": "address"
        },
        {
          "internalType": "uint256",
          "name": "id",
          "type": "uint256"
        }
      ],
      "name": "balanceOf",
      "outputs": [
        {
          "internalType": "uint256",
          "name": "",
          "type": "uint256"
        }
      ],
      "stateMutability": "view",
      "type": "function",
      "constant": true
    },
    {
      "inputs": [
        {
          "internalType": "address[]",
          "name": "accounts",
          "type": "address[]"
        },
        {
          "internalType": "uint256[]",
          "name": "ids",
          "type": "uint256[]"
        }
      ],
      "name": "balanceOfBatch",
      "outputs": [
        {
          "internalType": "uint256[]",
          "name": "",
          "type": "uint256[]"
        }
      ],
      "stateMutability": "view",
      "type": "function",
      "constant": true
    },
    {
      "inputs": [
        {
          "internalType": "uint256",
          "name": "",
          "type": "uint256"
        }
      ],
      "name": "horseSupply",
      "outputs": [
        {
          "internalType": "uint256",
          "name": "",
          "type": "uint256"
        }
      ],
      "stateMutability": "view",
      "type": "function",
      "constant": true
    },
    {
      "inputs": [
        {
          "internalType": "address",
          "name": "account",
          "type": "address"
        },
        {
          "internalType": "address",
          "name": "operator",
          "type": "address"
        }
      ],
      "name": "isApprovedForAll",
      "outputs": [
        {
          "internalType": "bool",
          "name": "",
          "type": "bool"
        }
      ],
      "stateMutability": "view",
      "type": "function",
      "constant": true
    },
    {
      "inputs": [],
      "name": "owner",
      "outputs": [
        {
          "internalType": "address",
          "name": "",
          "type": "address"
        }
      ],
      "stateMutability": "view",
      "type": "function",
      "constant": true
    },
    {
      "inputs": [],
      "name": "renounceOwnership",
      "outputs": [],
      "stateMutability": "nonpayable",
      "type": "function"
    },
    {
      "inputs": [
        {
          "internalType": "address",
          "name": "from",
          "type": "address"
        },
        {
          "internalType": "address",
          "name": "to",
          "type": "address"
        },
        {
          "internalType": "uint256[]",
          "name": "ids",
          "type": "uint256[]"
        },
        {
          "internalType": "uint256[]",
          "name": "values",
          "type": "uint256[]"
        },
        {
          "internalType": "bytes",
          "name": "data",
          "type": "bytes"
        }
      ],
      "name": "safeBatchTransferFrom",
      "outputs": [],
      "stateMutability": "nonpayable",
      "type": "function"
    },
    {
      "inputs": [
        {
          "internalType": "address",
          "name": "from",
          "type": "address"
        },
        {
          "internalType": "address",
          "name": "to",
          "type": "address"
        },
        {
          "internalType": "uint256",
          "name": "id",
          "type": "uint256"
        },
        {
          "internalType": "uint256",
          "name": "value",
          "type": "uint256"
        },
        {
          "internalType": "bytes",
          "name": "data",
          "type": "bytes"
        }
      ],
      "name": "safeTransferFrom",
      "outputs": [],
      "stateMutability": "nonpayable",
      "type": "function"
    },
    {
      "inputs": [
        {
          "internalType": "address",
          "name": "operator",
          "type": "address"
        },
        {
          "internalType": "bool",
          "name": "approved",
          "type": "bool"
        }
      ],
      "name": "setApprovalForAll",
      "outputs": [],
      "stateMutability": "nonpayable",
      "type": "function"
    },
    {
      "inputs": [
        {
          "internalType": "bytes4",
          "name": "interfaceId",
          "type": "bytes4"
        }
      ],
      "name": "supportsInterface",
      "outputs": [
        {
          "internalType": "bool",
          "name": "",
          "type": "bool"
        }
      ],
      "stateMutability": "view",
      "type": "function",
      "constant": true
    },
    {
      "inputs": [],
      "name": "totalSupply",
      "outputs": [
        {
          "internalType": "uint256",
          "name": "",
          "type": "uint256"
        }
      ],
      "stateMutability": "view",
      "type": "function",
      "constant": true
    },
    {
      "inputs": [
        {
          "internalType": "address",
          "name": "newOwner",
          "type": "address"
        }
      ],
      "name": "transferOwnership",
      "outputs": [],
      "stateMutability": "nonpayable",
      "type": "function"
    },
    {
      "inputs": [
        {
          "internalType": "address",
          "name": "to",
          "type": "address"
        },
        {
          "internalType": "uint256",
          "name": "id",
          "type": "uint256"
        },
        {
          "internalType": "uint256",
          "name": "amount",
          "type": "uint256"
        }
      ],
      "name": "mint",
      "outputs": [],
      "stateMutability": "nonpayable",
      "type": "function"
    },
    {
      "inputs": [
        {
          "internalType": "uint256",
          "name": "_id",
          "type": "uint256"
        }
      ],
      "name": "uri",
      "outputs": [
        {
          "internalType": "string",
          "name": "",
          "type": "string"
        }
      ],
      "stateMutability": "view",
      "type": "function",
      "constant": true
    },
    {
      "inputs": [
        {
          "internalType": "string",
          "name": "newuri",
          "type": "string"
        }
      ],
      "name": "setURI",
      "outputs": [],
      "stateMutability": "nonpayable",
      "type": "function"
    }
  ],
  "bytecode": "0x608060405234801562000010575f80fd5b5060405162002df138038062002df183398181016040528101906200003691906200033a565b33816200004981620000dd60201b60201c565b505f73ffffffffffffffffffffffffffffffffffffffff168173ffffffffffffffffffffffffffffffffffffffff1603620000bd575f6040517f1e4fbdf7000000000000000000000000000000000000000000000000000000008152600401620000b49190620003cc565b60405180910390fd5b620000ce81620000f260201b60201c565b505f6004819055505062000702565b8060029081620000ee91906200061e565b5050565b5f60035f9054906101000a900473ffffffffffffffffffffffffffffffffffffffff1690508160035f6101000a81548173ffffffffffffffffffffffffffffffffffffffff021916908373ffffffffffffffffffffffffffffffffffffffff1602179055508173ffffffffffffffffffffffffffffffffffffffff168173ffffffffffffffffffffffffffffffffffffffff167f8be0079c531659141344cd1fd0a4f28419497f9722a3daafe3b4186f6b6457e060405160405180910390a35050565b5f604051905090565b5f80fd5b5f80fd5b5f80fd5b5f80fd5b5f601f19601f8301169050919050565b7f4e487b71000000000000000000000000000000000000000000000000000000005f52604160045260245ffd5b6200021682620001ce565b810181811067ffffffffffffffff82111715620002385762000237620001de565b5b80604052505050565b5f6200024c620001b5565b90506200025a82826200020b565b919050565b5f67ffffffffffffffff8211156200027c576200027b620001de565b5b6200028782620001ce565b9050602081019050919050565b5f5b83811015620002b357808201518184015260208101905062000296565b5f8484015250505050565b5f620002d4620002ce846200025f565b62000241565b905082815260208101848484011115620002f357620002f2620001ca565b5b6200030084828562000294565b509392505050565b5f82601f8301126200031f576200031e620001c6565b5b815162000331848260208601620002be565b91505092915050565b5f60208284031215620003525762000351620001be565b5b5f82015167ffffffffffffffff811115620003725762000371620001c2565b5b620003808482850162000308565b91505092915050565b5f73ffffffffffffffffffffffffffffffffffffffff82169050919050565b5f620003b48262000389565b9050919050565b620003c681620003a8565b82525050565b5f602082019050620003e15f830184620003bb565b92915050565b5f81519050919050565b7f4e487b71000000000000000000000000000000000000000000000000000000005f52602260045260245ffd5b5f60028204905060018216806200043657607f821691505b6020821081036200044c576200044b620003f1565b5b50919050565b5f819050815f5260205f209050919050565b5f6020601f8301049050919050565b5f82821b905092915050565b5f60088302620004b07fffffffffffffffffffffffffffffffffffffffffffffffffffffffffffffffff8262000473565b620004bc868362000473565b95508019841693508086168417925050509392505050565b5f819050919050565b5f819050919050565b5f6200050662000500620004fa84620004d4565b620004dd565b620004d4565b9050919050565b5f819050919050565b6200052183620004e6565b6200053962000530826200050d565b8484546200047f565b825550505050565b5f90565b6200054f62000541565b6200055c81848462000516565b505050565b5b818110156200058357620005775f8262000545565b60018101905062000562565b5050565b601f821115620005d2576200059c8162000452565b620005a78462000464565b81016020851015620005b7578190505b620005cf620005c68562000464565b83018262000561565b50505b505050565b5f82821c905092915050565b5f620005f45f1984600802620005d7565b1980831691505092915050565b5f6200060e8383620005e3565b9150826002028217905092915050565b6200062982620003e7565b67ffffffffffffffff811115620006455762000644620001de565b5b6200065182546200041e565b6200065e82828562000587565b5f60209050601f83116001811462000694575f84156200067f578287015190505b6200068b858262000601565b865550620006fa565b601f198416620006a48662000452565b5f5b82811015620006cd57848901518255600182019150602085019450602081019050620006a6565b86831015620006ed5784890151620006e9601f891682620005e3565b8355505b6001600288020188555050505b505050505050565b6126e180620007105f395ff3fe608060405234801561000f575f80fd5b50600436106100f2575f3560e01c80632ed04a7911610095578063a22cb46511610064578063a22cb46514610280578063e985e9c51461029c578063f242432a146102cc578063f2fde38b146102e8576100f2565b80632ed04a79146101f85780634e1273f414610228578063715018a6146102585780638da5cb5b14610262576100f2565b80630e89341c116100d15780630e89341c14610172578063156e29f6146101a257806318160ddd146101be5780632eb2c2d6146101dc576100f2565b8062fdd58e146100f657806301ffc9a71461012657806302fe530514610156575b5f80fd5b610110600480360381019061010b9190611782565b610304565b60405161011d91906117cf565b60405180910390f35b610140600480360381019061013b919061183d565b610359565b60405161014d9190611882565b60405180910390f35b610170600480360381019061016b91906119d7565b61043a565b005b61018c60048036038101906101879190611a1e565b61044e565b6040516101999190611ac3565b60405180910390f35b6101bc60048036038101906101b79190611ae3565b610460565b005b6101c66104be565b6040516101d391906117cf565b60405180910390f35b6101f660048036038101906101f19190611c95565b6104c4565b005b610212600480360381019061020d9190611a1e565b61056b565b60405161021f91906117cf565b60405180910390f35b610242600480360381019061023d9190611e20565b610580565b60405161024f9190611f4d565b60405180910390f35b61026061068d565b005b61026a6106a0565b6040516102779190611f7c565b60405180910390f35b61029a60048036038101906102959190611fbf565b6106c8565b005b6102b660048036038101906102b19190611ffd565b6106de565b6040516102c39190611882565b60405180910390f35b6102e660048036038101906102e1919061203b565b61076c565b005b61030260048036038101906102fd91906120ce565b610813565b005b5f805f8381526020019081526020015f205f8473ffffffffffffffffffffffffffffffffffffffff1673ffffffffffffffffffffffffffffffffffffffff1681526020019081526020015f2054905092915050565b5f7fd9b67a26000000000000000000000000000000000000000000000000000000007bffffffffffffffffffffffffffffffffffffffffffffffffffffffff1916827bffffffffffffffffffffffffffffffffffffffffffffffffffffffff1916148061042357507f0e89341c000000000000000000000000000000000000000000000000000000007bffffffffffffffffffffffffffffffffffffffffffffffffffffffff1916827bffffffffffffffffffffffffffffffffffffffffffffffffffffffff1916145b80610433575061043282610897565b5b9050919050565b610442610900565b61044b81610987565b50565b60606104598261099a565b9050919050565b61047a83838360405180602001604052805f815250610a2c565b8060045f82825461048b9190612126565b925050819055508060055f8481526020019081526020015f205f8282546104b29190612126565b92505081905550505050565b60045481565b5f6104cd610ac1565b90508073ffffffffffffffffffffffffffffffffffffffff168673ffffffffffffffffffffffffffffffffffffffff1614158015610512575061051086826106de565b155b156105565780866040517fe237d92200000000000000000000000000000000000000000000000000000000815260040161054d929190612159565b60405180910390fd5b6105638686868686610ac8565b505050505050565b6005602052805f5260405f205f915090505481565b606081518351146105cc57815183516040517f5b0599910000000000000000000000000000000000000000000000000000000081526004016105c3929190612180565b60405180910390fd5b5f835167ffffffffffffffff8111156105e8576105e76118b3565b5b6040519080825280602002602001820160405280156106165781602001602082028036833780820191505090505b5090505f5b84518110156106825761065261063a8287610bbc90919063ffffffff16565b61064d8387610bcf90919063ffffffff16565b610304565b828281518110610665576106646121a7565b5b6020026020010181815250508061067b906121d4565b905061061b565b508091505092915050565b610695610900565b61069e5f610be2565b565b5f60035f9054906101000a900473ffffffffffffffffffffffffffffffffffffffff16905090565b6106da6106d3610ac1565b8383610ca5565b5050565b5f60015f8473ffffffffffffffffffffffffffffffffffffffff1673ffffffffffffffffffffffffffffffffffffffff1681526020019081526020015f205f8373ffffffffffffffffffffffffffffffffffffffff1673ffffffffffffffffffffffffffffffffffffffff1681526020019081526020015f205f9054906101000a900460ff16905092915050565b5f610775610ac1565b90508073ffffffffffffffffffffffffffffffffffffffff168673ffffffffffffffffffffffffffffffffffffffff16141580156107ba57506107b886826106de565b155b156107fe5780866040517fe237d9220000000000000000000000000000000000000000000000000000000081526004016107f5929190612159565b60405180910390fd5b61080b8686868686610e0e565b505050505050565b61081b610900565b5f73ffffffffffffffffffffffffffffffffffffffff168173ffffffffffffffffffffffffffffffffffffffff160361088b575f6040517f1e4fbdf70000000000000000000000000000000000000000000000000000000081526004016108829190611f7c565b60405180910390fd5b61089481610be2565b50565b5f7f01ffc9a7000000000000000000000000000000000000000000000000000000007bffffffffffffffffffffffffffffffffffffffffffffffffffffffff1916827bffffffffffffffffffffffffffffffffffffffffffffffffffffffff1916149050919050565b610908610ac1565b73ffffffffffffffffffffffffffffffffffffffff166109266106a0565b73ffffffffffffffffffffffffffffffffffffffff161461098557610949610ac1565b6040517f118cdaa700000000000000000000000000000000000000000000000000000000815260040161097c9190611f7c565b60405180910390fd5b565b80600290816109969190612415565b5050565b6060600280546109a990612248565b80601f01602080910402602001604051908101604052809291908181526020018280546109d590612248565b8015610a205780601f106109f757610100808354040283529160200191610a20565b820191905f5260205f20905b815481529060010190602001808311610a0357829003601f168201915b50505050509050919050565b5f73ffffffffffffffffffffffffffffffffffffffff168473ffffffffffffffffffffffffffffffffffffffff1603610a9c575f6040517f57f447ce000000000000000000000000000000000000000000000000000000008152600401610a939190611f7c565b60405180910390fd5b5f80610aa88585610f14565b91509150610ab95f87848487610f44565b505050505050565b5f33905090565b5f73ffffffffffffffffffffffffffffffffffffffff168473ffffffffffffffffffffffffffffffffffffffff1603610b38575f6040517f57f447ce000000000000000000000000000000000000000000000000000000008152600401610b2f9190611f7c565b60405180910390fd5b5f73ffffffffffffffffffffffffffffffffffffffff168573ffffffffffffffffffffffffffffffffffffffff1603610ba8575f6040517f01a83514000000000000000000000000000000000000000000000000000000008152600401610b9f9190611f7c565b60405180910390fd5b610bb58585858585610f44565b5050505050565b5f60208202602084010151905092915050565b5f60208202602084010151905092915050565b5f60035f9054906101000a900473ffffffffffffffffffffffffffffffffffffffff1690508160035f6101000a81548173ffffffffffffffffffffffffffffffffffffffff021916908373ffffffffffffffffffffffffffffffffffffffff1602179055508173ffffffffffffffffffffffffffffffffffffffff168173ffffffffffffffffffffffffffffffffffffffff167f8be0079c531659141344cd1fd0a4f28419497f9722a3daafe3b4186f6b6457e060405160405180910390a35050565b5f73ffffffffffffffffffffffffffffffffffffffff168273ffffffffffffffffffffffffffffffffffffffff1603610d15575f6040517fced3e100000000000000000000000000000000000000000000000000000000008152600401610d0c9190611f7c565b60405180910390fd5b8060015f8573ffffffffffffffffffffffffffffffffffffffff1673ffffffffffffffffffffffffffffffffffffffff1681526020019081526020015f205f8473ffffffffffffffffffffffffffffffffffffffff1673ffffffffffffffffffffffffffffffffffffffff1681526020019081526020015f205f6101000a81548160ff0219169083151502179055508173ffffffffffffffffffffffffffffffffffffffff168373ffffffffffffffffffffffffffffffffffffffff167f17307eab39ab6107e8899845ad3d59bd9653f200f220920489ca2b5937696c3183604051610e019190611882565b60405180910390a3505050565b5f73ffffffffffffffffffffffffffffffffffffffff168473ffffffffffffffffffffffffffffffffffffffff1603610e7e575f6040517f57f447ce000000000000000000000000000000000000000000000000000000008152600401610e759190611f7c565b60405180910390fd5b5f73ffffffffffffffffffffffffffffffffffffffff168573ffffffffffffffffffffffffffffffffffffffff1603610eee575f6040517f01a83514000000000000000000000000000000000000000000000000000000008152600401610ee59190611f7c565b60405180910390fd5b5f80610efa8585610f14565b91509150610f0b8787848487610f44565b50505050505050565b60608060405191506001825283602083015260408201905060018152826020820152604081016040529250929050565b610f5085858585610ff0565b5f73ffffffffffffffffffffffffffffffffffffffff168473ffffffffffffffffffffffffffffffffffffffff1614610fe9575f610f8c610ac1565b90506001845103610fd8575f610fab5f86610bcf90919063ffffffff16565b90505f610fc15f86610bcf90919063ffffffff16565b9050610fd1838989858589611386565b5050610fe7565b610fe6818787878787611535565b5b505b5050505050565b805182511461103a57815181516040517f5b059991000000000000000000000000000000000000000000000000000000008152600401611031929190612180565b60405180910390fd5b5f611043610ac1565b90505f5b8351811015611245575f6110648286610bcf90919063ffffffff16565b90505f61107a8386610bcf90919063ffffffff16565b90505f73ffffffffffffffffffffffffffffffffffffffff168873ffffffffffffffffffffffffffffffffffffffff161461119d575f805f8481526020019081526020015f205f8a73ffffffffffffffffffffffffffffffffffffffff1673ffffffffffffffffffffffffffffffffffffffff1681526020019081526020015f205490508181101561114957888183856040517f03dee4c500000000000000000000000000000000000000000000000000000000815260040161114094939291906124e4565b60405180910390fd5b8181035f808581526020019081526020015f205f8b73ffffffffffffffffffffffffffffffffffffffff1673ffffffffffffffffffffffffffffffffffffffff1681526020019081526020015f2081905550505b5f73ffffffffffffffffffffffffffffffffffffffff168773ffffffffffffffffffffffffffffffffffffffff161461123257805f808481526020019081526020015f205f8973ffffffffffffffffffffffffffffffffffffffff1673ffffffffffffffffffffffffffffffffffffffff1681526020019081526020015f205f82825461122a9190612126565b925050819055505b50508061123e906121d4565b9050611047565b506001835103611300575f6112635f85610bcf90919063ffffffff16565b90505f6112795f85610bcf90919063ffffffff16565b90508573ffffffffffffffffffffffffffffffffffffffff168773ffffffffffffffffffffffffffffffffffffffff168473ffffffffffffffffffffffffffffffffffffffff167fc3d58168c5ae7397731d063d5bbf3d657854427343f4c083240f7aacaa2d0f6285856040516112f1929190612180565b60405180910390a4505061137f565b8373ffffffffffffffffffffffffffffffffffffffff168573ffffffffffffffffffffffffffffffffffffffff168273ffffffffffffffffffffffffffffffffffffffff167f4a39dc06d4c0dbc64b70af90fd698a233a518aa5d07e595d983b8c0526c8f7fb8686604051611376929190612527565b60405180910390a45b5050505050565b5f8473ffffffffffffffffffffffffffffffffffffffff163b111561152d578373ffffffffffffffffffffffffffffffffffffffff1663f23a6e6187878686866040518663ffffffff1660e01b81526004016113e69594939291906125ae565b6020604051808303815f875af192505050801561142157506040513d601f19601f8201168201806040525081019061141e919061261a565b60015b6114a2573d805f811461144f576040519150601f19603f3d011682016040523d82523d5f602084013e611454565b606091505b505f81510361149a57846040517f57f447ce0000000000000000000000000000000000000000000000000000000081526004016114919190611f7c565b60405180910390fd5b805181602001fd5b63f23a6e6160e01b7bffffffffffffffffffffffffffffffffffffffffffffffffffffffff1916817bffffffffffffffffffffffffffffffffffffffffffffffffffffffff19161461152b57846040517f57f447ce0000000000000000000000000000000000000000000000000000000081526004016115229190611f7c565b60405180910390fd5b505b505050505050565b5f8473ffffffffffffffffffffffffffffffffffffffff163b11156116dc578373ffffffffffffffffffffffffffffffffffffffff1663bc197c8187878686866040518663ffffffff1660e01b8152600401611595959493929190612645565b6020604051808303815f875af19250505080156115d057506040513d601f19601f820116820180604052508101906115cd919061261a565b60015b611651573d805f81146115fe576040519150601f19603f3d011682016040523d82523d5f602084013e611603565b606091505b505f81510361164957846040517f57f447ce0000000000000000000000000000000000000000000000000000000081526004016116409190611f7c565b60405180910390fd5b805181602001fd5b63bc197c8160e01b7bffffffffffffffffffffffffffffffffffffffffffffffffffffffff1916817bffffffffffffffffffffffffffffffffffffffffffffffffffffffff1916146116da57846040517f57f447ce0000000000000000000000000000000000000000000000000000000081526004016116d19190611f7c565b60405180910390fd5b505b505050505050565b5f604051905090565b5f80fd5b5f80fd5b5f73ffffffffffffffffffffffffffffffffffffffff82169050919050565b5f61171e826116f5565b9050919050565b61172e81611714565b8114611738575f80fd5b50565b5f8135905061174981611725565b92915050565b5f819050919050565b6117618161174f565b811461176b575f80fd5b50565b5f8135905061177c81611758565b92915050565b5f8060408385031215611798576117976116ed565b5b5f6117a58582860161173b565b92505060206117b68582860161176e565b9150509250929050565b6117c98161174f565b82525050565b5f6020820190506117e25f8301846117c0565b92915050565b5f7fffffffff0000000000000000000000000000000000000000000000000000000082169050919050565b61181c816117e8565b8114611826575f80fd5b50565b5f8135905061183781611813565b92915050565b5f60208284031215611852576118516116ed565b5b5f61185f84828501611829565b91505092915050565b5f8115159050919050565b61187c81611868565b82525050565b5f6020820190506118955f830184611873565b92915050565b5f80fd5b5f80fd5b5f601f19601f8301169050919050565b7f4e487b71000000000000000000000000000000000000000000000000000000005f52604160045260245ffd5b6118e9826118a3565b810181811067ffffffffffffffff82111715611908576119076118b3565b5b80604052505050565b5f61191a6116e4565b905061192682826118e0565b919050565b5f67ffffffffffffffff821115611945576119446118b3565b5b61194e826118a3565b9050602081019050919050565b828183375f83830152505050565b5f61197b6119768461192b565b611911565b9050828152602081018484840111156119975761199661189f565b5b6119a284828561195b565b509392505050565b5f82601f8301126119be576119bd61189b565b5b81356119ce848260208601611969565b91505092915050565b5f602082840312156119ec576119eb6116ed565b5b5f82013567ffffffffffffffff811115611a0957611a086116f1565b5b611a15848285016119aa565b91505092915050565b5f60208284031215611a3357611a326116ed565b5b5f611a408482850161176e565b91505092915050565b5f81519050919050565b5f82825260208201905092915050565b5f5b83811015611a80578082015181840152602081019050611a65565b5f8484015250505050565b5f611a9582611a49565b611a9f8185611a53565b9350611aaf818560208601611a63565b611ab8816118a3565b840191505092915050565b5f6020820190508181035f830152611adb8184611a8b565b905092915050565b5f805f60608486031215611afa57611af96116ed565b5b5f611b078682870161173b565b9350506020611b188682870161176e565b9250506040611b298682870161176e565b9150509250925092565b5f67ffffffffffffffff821115611b4d57611b4c6118b3565b5b602082029050602081019050919050565b5f80fd5b5f611b74611b6f84611b33565b611911565b90508083825260208201905060208402830185811115611b9757611b96611b5e565b5b835b81811015611bc05780611bac888261176e565b845260208401935050602081019050611b99565b5050509392505050565b5f82601f830112611bde57611bdd61189b565b5b8135611bee848260208601611b62565b91505092915050565b5f67ffffffffffffffff821115611c1157611c106118b3565b5b611c1a826118a3565b9050602081019050919050565b5f611c39611c3484611bf7565b611911565b905082815260208101848484011115611c5557611c5461189f565b5b611c6084828561195b565b509392505050565b5f82601f830112611c7c57611c7b61189b565b5b8135611c8c848260208601611c27565b91505092915050565b5f805f805f60a08688031215611cae57611cad6116ed565b5b5f611cbb8882890161173b565b9550506020611ccc8882890161173b565b945050604086013567ffffffffffffffff811115611ced57611cec6116f1565b5b611cf988828901611bca565b935050606086013567ffffffffffffffff811115611d1a57611d196116f1565b5b611d2688828901611bca565b925050608086013567ffffffffffffffff811115611d4757611d466116f1565b5b611d5388828901611c68565b9150509295509295909350565b5f67ffffffffffffffff821115611d7a57611d796118b3565b5b602082029050602081019050919050565b5f611d9d611d9884611d60565b611911565b90508083825260208201905060208402830185811115611dc057611dbf611b5e565b5b835b81811015611de95780611dd5888261173b565b845260208401935050602081019050611dc2565b5050509392505050565b5f82601f830112611e0757611e0661189b565b5b8135611e17848260208601611d8b565b91505092915050565b5f8060408385031215611e3657611e356116ed565b5b5f83013567ffffffffffffffff811115611e5357611e526116f1565b5b611e5f85828601611df3565b925050602083013567ffffffffffffffff811115611e8057611e7f6116f1565b5b611e8c85828601611bca565b9150509250929050565b5f81519050919050565b5f82825260208201905092915050565b5f819050602082019050919050565b611ec88161174f565b82525050565b5f611ed98383611ebf565b60208301905092915050565b5f602082019050919050565b5f611efb82611e96565b611f058185611ea0565b9350611f1083611eb0565b805f5b83811015611f40578151611f278882611ece565b9750611f3283611ee5565b925050600181019050611f13565b5085935050505092915050565b5f6020820190508181035f830152611f658184611ef1565b905092915050565b611f7681611714565b82525050565b5f602082019050611f8f5f830184611f6d565b92915050565b611f9e81611868565b8114611fa8575f80fd5b50565b5f81359050611fb981611f95565b92915050565b5f8060408385031215611fd557611fd46116ed565b5b5f611fe28582860161173b565b9250506020611ff385828601611fab565b9150509250929050565b5f8060408385031215612013576120126116ed565b5b5f6120208582860161173b565b92505060206120318582860161173b565b9150509250929050565b5f805f805f60a08688031215612054576120536116ed565b5b5f6120618882890161173b565b95505060206120728882890161173b565b94505060406120838882890161176e565b93505060606120948882890161176e565b925050608086013567ffffffffffffffff8111156120b5576120b46116f1565b5b6120c188828901611c68565b9150509295509295909350565b5f602082840312156120e3576120e26116ed565b5b5f6120f08482850161173b565b91505092915050565b7f4e487b71000000000000000000000000000000000000000000000000000000005f52601160045260245ffd5b5f6121308261174f565b915061213b8361174f565b9250828201905080821115612153576121526120f9565b5b92915050565b5f60408201905061216c5f830185611f6d565b6121796020830184611f6d565b9392505050565b5f6040820190506121935f8301856117c0565b6121a060208301846117c0565b9392505050565b7f4e487b71000000000000000000000000000000000000000000000000000000005f52603260045260245ffd5b5f6121de8261174f565b91507fffffffffffffffffffffffffffffffffffffffffffffffffffffffffffffffff82036122105761220f6120f9565b5b600182019050919050565b7f4e487b71000000000000000000000000000000000000000000000000000000005f52602260045260245ffd5b5f600282049050600182168061225f57607f821691505b6020821081036122725761227161221b565b5b50919050565b5f819050815f5260205f209050919050565b5f6020601f8301049050919050565b5f82821b905092915050565b5f600883026122d47fffffffffffffffffffffffffffffffffffffffffffffffffffffffffffffffff82612299565b6122de8683612299565b95508019841693508086168417925050509392505050565b5f819050919050565b5f61231961231461230f8461174f565b6122f6565b61174f565b9050919050565b5f819050919050565b612332836122ff565b61234661233e82612320565b8484546122a5565b825550505050565b5f90565b61235a61234e565b612365818484612329565b505050565b5b818110156123885761237d5f82612352565b60018101905061236b565b5050565b601f8211156123cd5761239e81612278565b6123a78461228a565b810160208510156123b6578190505b6123ca6123c28561228a565b83018261236a565b50505b505050565b5f82821c905092915050565b5f6123ed5f19846008026123d2565b1980831691505092915050565b5f61240583836123de565b9150826002028217905092915050565b61241e82611a49565b67ffffffffffffffff811115612437576124366118b3565b5b6124418254612248565b61244c82828561238c565b5f60209050601f83116001811461247d575f841561246b578287015190505b61247585826123fa565b8655506124dc565b601f19841661248b86612278565b5f5b828110156124b25784890151825560018201915060208501945060208101905061248d565b868310156124cf57848901516124cb601f8916826123de565b8355505b6001600288020188555050505b505050505050565b5f6080820190506124f75f830187611f6d565b61250460208301866117c0565b61251160408301856117c0565b61251e60608301846117c0565b95945050505050565b5f6040820190508181035f83015261253f8185611ef1565b905081810360208301526125538184611ef1565b90509392505050565b5f81519050919050565b5f82825260208201905092915050565b5f6125808261255c565b61258a8185612566565b935061259a818560208601611a63565b6125a3816118a3565b840191505092915050565b5f60a0820190506125c15f830188611f6d565b6125ce6020830187611f6d565b6125db60408301866117c0565b6125e860608301856117c0565b81810360808301526125fa8184612576565b90509695505050505050565b5f8151905061261481611813565b92915050565b5f6020828403121561262f5761262e6116ed565b5b5f61263c84828501612606565b91505092915050565b5f60a0820190506126585f830188611f6d565b6126656020830187611f6d565b81810360408301526126778186611ef1565b9050818103606083015261268b8185611ef1565b9050818103608083015261269f8184612576565b9050969550505050505056fea26469706673582212202e377ddaccbdf8560e0fc44c74feff96a2fac63d75d9bb22e4b9602d078e53d864736f6c63430008150033",
  "immutableReferences": {},
  "source": "// Place this content into: ~/SodaPop/contracts/HorseToken.sol\n\n// SPDX-License-Identifier: MIT\npragma solidity ^0.8.0;\n\nimport \"@openzeppelin/contracts/token/ERC1155/ERC1155.sol\";\nimport \"@openzeppelin/contracts/access/Ownable.sol\";\n\ncontract HorseToken is ERC1155, Ownable {\n    uint256 public totalSupply;\n    mapping(uint256 => uint256) public horseSupply;\n\n    constructor(string memory uri) ERC1155(uri) Ownable(msg.sender) {\n        totalSupply = 0;\n    }\n\n    function mint(address to, uint256 id, uint256 amount) public {\n        _mint(to, id, amount, \"\");\n        totalSupply += amount;\n        horseSupply[id] += amount;\n    }\n\n    function uri(uint256 _id) public view override returns (string memory) {\n        return super.uri(_id);\n    }\n\n    function setURI(string memory newuri) external onlyOwner {\n        _setURI(newuri);\n    }\n}\n",
  "sourcePath": "/Users/alexanderhaire/SodaPop/contracts/HorseToken.sol",
  "compiler": {
    "name": "solc",
    "version": "0.8.21+commit.d9974bed.Emscripten.clang"
  },
  "schemaVersion": "3.4.16",
  "updatedAt": "2025-06-04T11:33:40.791Z",
  "networkType": "ethereum",
  "devdoc": {
    "errors": {
      "ERC1155InsufficientBalance(address,uint256,uint256,uint256)": [
        {
          "details": "Indicates an error related to the current `balance` of a `sender`. Used in transfers.",
          "params": {
            "balance": "Current balance for the interacting account.",
            "needed": "Minimum amount required to perform a transfer.",
            "sender": "Address whose tokens are being transferred.",
            "tokenId": "Identifier number of a token."
          }
        }
      ],
      "ERC1155InvalidApprover(address)": [
        {
          "details": "Indicates a failure with the `approver` of a token to be approved. Used in approvals.",
          "params": {
            "approver": "Address initiating an approval operation."
          }
        }
      ],
      "ERC1155InvalidArrayLength(uint256,uint256)": [
        {
          "details": "Indicates an array length mismatch between ids and values in a safeBatchTransferFrom operation. Used in batch transfers.",
          "params": {
            "idsLength": "Length of the array of token identifiers",
            "valuesLength": "Length of the array of token amounts"
          }
        }
      ],
      "ERC1155InvalidOperator(address)": [
        {
          "details": "Indicates a failure with the `operator` to be approved. Used in approvals.",
          "params": {
            "operator": "Address that may be allowed to operate on tokens without being their owner."
          }
        }
      ],
      "ERC1155InvalidReceiver(address)": [
        {
          "details": "Indicates a failure with the token `receiver`. Used in transfers.",
          "params": {
            "receiver": "Address to which tokens are being transferred."
          }
        }
      ],
      "ERC1155InvalidSender(address)": [
        {
          "details": "Indicates a failure with the token `sender`. Used in transfers.",
          "params": {
            "sender": "Address whose tokens are being transferred."
          }
        }
      ],
      "ERC1155MissingApprovalForAll(address,address)": [
        {
          "details": "Indicates a failure with the `operator`s approval. Used in transfers.",
          "params": {
            "operator": "Address that may be allowed to operate on tokens without being their owner.",
            "owner": "Address of the current owner of a token."
          }
        }
      ],
      "OwnableInvalidOwner(address)": [
        {
          "details": "The owner is not a valid owner account. (eg. `address(0)`)"
        }
      ],
      "OwnableUnauthorizedAccount(address)": [
        {
          "details": "The caller account is not authorized to perform an operation."
        }
      ]
    },
    "events": {
      "ApprovalForAll(address,address,bool)": {
        "details": "Emitted when `account` grants or revokes permission to `operator` to transfer their tokens, according to `approved`."
      },
      "TransferBatch(address,address,address,uint256[],uint256[])": {
        "details": "Equivalent to multiple {TransferSingle} events, where `operator`, `from` and `to` are the same for all transfers."
      },
      "TransferSingle(address,address,address,uint256,uint256)": {
        "details": "Emitted when `value` amount of tokens of type `id` are transferred from `from` to `to` by `operator`."
      },
      "URI(string,uint256)": {
        "details": "Emitted when the URI for token type `id` changes to `value`, if it is a non-programmatic URI. If an {URI} event was emitted for `id`, the standard https://eips.ethereum.org/EIPS/eip-1155#metadata-extensions[guarantees] that `value` will equal the value returned by {IERC1155MetadataURI-uri}."
      }
    },
    "kind": "dev",
    "methods": {
      "balanceOf(address,uint256)": {
        "details": "See {IERC1155-balanceOf}."
      },
      "balanceOfBatch(address[],uint256[])": {
        "details": "See {IERC1155-balanceOfBatch}. Requirements: - `accounts` and `ids` must have the same length."
      },
      "isApprovedForAll(address,address)": {
        "details": "See {IERC1155-isApprovedForAll}."
      },
      "owner()": {
        "details": "Returns the address of the current owner."
      },
      "renounceOwnership()": {
        "details": "Leaves the contract without owner. It will not be possible to call `onlyOwner` functions. Can only be called by the current owner. NOTE: Renouncing ownership will leave the contract without an owner, thereby disabling any functionality that is only available to the owner."
      },
      "safeBatchTransferFrom(address,address,uint256[],uint256[],bytes)": {
        "details": "See {IERC1155-safeBatchTransferFrom}."
      },
      "safeTransferFrom(address,address,uint256,uint256,bytes)": {
        "details": "See {IERC1155-safeTransferFrom}."
      },
      "setApprovalForAll(address,bool)": {
        "details": "See {IERC1155-setApprovalForAll}."
      },
      "supportsInterface(bytes4)": {
        "details": "See {IERC165-supportsInterface}."
      },
      "transferOwnership(address)": {
        "details": "Transfers ownership of the contract to a new account (`newOwner`). Can only be called by the current owner."
      }
    },
    "version": 1
  },
  "userdoc": {
    "kind": "user",
    "methods": {},
    "version": 1
  }
}