{
  "contractName": "HorseFactory",
  "abi": [
    {
      "inputs": [],
      "stateMutability": "nonpayable",
      "type": "constructor"
    },
    {
      "inputs": [
        {
          "internalType": "address",
          "name": "sender",
          "type": "address"
        },
        {
          "internalType": "uint256",
          "name": "balance",
          "type": "uint256"
        },
        {
          "internalType": "uint256",
          "name": "needed",
          "type": "uint256"
        },
        {
          "internalType": "uint256",
          "name": "tokenId",
          "type": "uint256"
        }
      ],
      "name": "ERC1155InsufficientBalance",
      "type": "error"
    },
    {
      "inputs": [
        {
          "internalType": "address",
          "name": "approver",
          "type": "address"
        }
      ],
      "name": "ERC1155InvalidApprover",
      "type": "error"
    },
    {
      "inputs": [
        {
          "internalType": "uint256",
          "name": "idsLength",
          "type": "uint256"
        },
        {
          "internalType": "uint256",
          "name": "valuesLength",
          "type": "uint256"
        }
      ],
      "name": "ERC1155InvalidArrayLength",
      "type": "error"
    },
    {
      "inputs": [
        {
          "internalType": "address",
          "name": "operator",
          "type": "address"
        }
      ],
      "name": "ERC1155InvalidOperator",
      "type": "error"
    },
    {
      "inputs": [
        {
          "internalType": "address",
          "name": "receiver",
          "type": "address"
        }
      ],
      "name": "ERC1155InvalidReceiver",
      "type": "error"
    },
    {
      "inputs": [
        {
          "internalType": "address",
          "name": "sender",
          "type": "address"
        }
      ],
      "name": "ERC1155InvalidSender",
      "type": "error"
    },
    {
      "inputs": [
        {
          "internalType": "address",
          "name": "operator",
          "type": "address"
        },
        {
          "internalType": "address",
          "name": "owner",
          "type": "address"
        }
      ],
      "name": "ERC1155MissingApprovalForAll",
      "type": "error"
    },
    {
      "inputs": [
        {
          "internalType": "address",
          "name": "owner",
          "type": "address"
        }
      ],
      "name": "OwnableInvalidOwner",
      "type": "error"
    },
    {
      "inputs": [
        {
          "internalType": "address",
          "name": "account",
          "type": "address"
        }
      ],
      "name": "OwnableUnauthorizedAccount",
      "type": "error"
    },
    {
      "anonymous": false,
      "inputs": [
        {
          "indexed": true,
          "internalType": "address",
          "name": "account",
          "type": "address"
        },
        {
          "indexed": true,
          "internalType": "address",
          "name": "operator",
          "type": "address"
        },
        {
          "indexed": false,
          "internalType": "bool",
          "name": "approved",
          "type": "bool"
        }
      ],
      "name": "ApprovalForAll",
      "type": "event"
    },
    {
      "anonymous": false,
      "inputs": [
        {
          "indexed": true,
          "internalType": "address",
          "name": "previousOwner",
          "type": "address"
        },
        {
          "indexed": true,
          "internalType": "address",
          "name": "newOwner",
          "type": "address"
        }
      ],
      "name": "OwnershipTransferred",
      "type": "event"
    },
    {
      "anonymous": false,
      "inputs": [
        {
          "indexed": true,
          "internalType": "address",
          "name": "operator",
          "type": "address"
        },
        {
          "indexed": true,
          "internalType": "address",
          "name": "from",
          "type": "address"
        },
        {
          "indexed": true,
          "internalType": "address",
          "name": "to",
          "type": "address"
        },
        {
          "indexed": false,
          "internalType": "uint256[]",
          "name": "ids",
          "type": "uint256[]"
        },
        {
          "indexed": false,
          "internalType": "uint256[]",
          "name": "values",
          "type": "uint256[]"
        }
      ],
      "name": "TransferBatch",
      "type": "event"
    },
    {
      "anonymous": false,
      "inputs": [
        {
          "indexed": true,
          "internalType": "address",
          "name": "operator",
          "type": "address"
        },
        {
          "indexed": true,
          "internalType": "address",
          "name": "from",
          "type": "address"
        },
        {
          "indexed": true,
          "internalType": "address",
          "name": "to",
          "type": "address"
        },
        {
          "indexed": false,
          "internalType": "uint256",
          "name": "id",
          "type": "uint256"
        },
        {
          "indexed": false,
          "internalType": "uint256",
          "name": "value",
          "type": "uint256"
        }
      ],
      "name": "TransferSingle",
      "type": "event"
    },
    {
      "anonymous": false,
      "inputs": [
        {
          "indexed": false,
          "internalType": "string",
          "name": "value",
          "type": "string"
        },
        {
          "indexed": true,
          "internalType": "uint256",
          "name": "id",
          "type": "uint256"
        }
      ],
      "name": "URI",
      "type": "event"
    },
    {
      "inputs": [
        {
          "internalType": "address",
          "name": "account",
          "type": "address"
        },
        {
          "internalType": "uint256",
          "name": "id",
          "type": "uint256"
        }
      ],
      "name": "balanceOf",
      "outputs": [
        {
          "internalType": "uint256",
          "name": "",
          "type": "uint256"
        }
      ],
      "stateMutability": "view",
      "type": "function"
    },
    {
      "inputs": [
        {
          "internalType": "address[]",
          "name": "accounts",
          "type": "address[]"
        },
        {
          "internalType": "uint256[]",
          "name": "ids",
          "type": "uint256[]"
        }
      ],
      "name": "balanceOfBatch",
      "outputs": [
        {
          "internalType": "uint256[]",
          "name": "",
          "type": "uint256[]"
        }
      ],
      "stateMutability": "view",
      "type": "function"
    },
    {
      "inputs": [
        {
          "internalType": "address",
          "name": "account",
          "type": "address"
        },
        {
          "internalType": "address",
          "name": "operator",
          "type": "address"
        }
      ],
      "name": "isApprovedForAll",
      "outputs": [
        {
          "internalType": "bool",
          "name": "",
          "type": "bool"
        }
      ],
      "stateMutability": "view",
      "type": "function"
    },
    {
      "inputs": [],
      "name": "nextHorseId",
      "outputs": [
        {
          "internalType": "uint256",
          "name": "",
          "type": "uint256"
        }
      ],
      "stateMutability": "view",
      "type": "function"
    },
    {
      "inputs": [],
      "name": "owner",
      "outputs": [
        {
          "internalType": "address",
          "name": "",
          "type": "address"
        }
      ],
      "stateMutability": "view",
      "type": "function"
    },
    {
      "inputs": [],
      "name": "platform",
      "outputs": [
        {
          "internalType": "address",
          "name": "",
          "type": "address"
        }
      ],
      "stateMutability": "view",
      "type": "function"
    },
    {
      "inputs": [],
      "name": "renounceOwnership",
      "outputs": [],
      "stateMutability": "nonpayable",
      "type": "function"
    },
    {
      "inputs": [
        {
          "internalType": "address",
          "name": "from",
          "type": "address"
        },
        {
          "internalType": "address",
          "name": "to",
          "type": "address"
        },
        {
          "internalType": "uint256[]",
          "name": "ids",
          "type": "uint256[]"
        },
        {
          "internalType": "uint256[]",
          "name": "values",
          "type": "uint256[]"
        },
        {
          "internalType": "bytes",
          "name": "data",
          "type": "bytes"
        }
      ],
      "name": "safeBatchTransferFrom",
      "outputs": [],
      "stateMutability": "nonpayable",
      "type": "function"
    },
    {
      "inputs": [
        {
          "internalType": "address",
          "name": "from",
          "type": "address"
        },
        {
          "internalType": "address",
          "name": "to",
          "type": "address"
        },
        {
          "internalType": "uint256",
          "name": "id",
          "type": "uint256"
        },
        {
          "internalType": "uint256",
          "name": "value",
          "type": "uint256"
        },
        {
          "internalType": "bytes",
          "name": "data",
          "type": "bytes"
        }
      ],
      "name": "safeTransferFrom",
      "outputs": [],
      "stateMutability": "nonpayable",
      "type": "function"
    },
    {
      "inputs": [
        {
          "internalType": "address",
          "name": "operator",
          "type": "address"
        },
        {
          "internalType": "bool",
          "name": "approved",
          "type": "bool"
        }
      ],
      "name": "setApprovalForAll",
      "outputs": [],
      "stateMutability": "nonpayable",
      "type": "function"
    },
    {
      "inputs": [
        {
          "internalType": "uint256",
          "name": "",
          "type": "uint256"
        }
      ],
      "name": "sharePrice",
      "outputs": [
        {
          "internalType": "uint256",
          "name": "",
          "type": "uint256"
        }
      ],
      "stateMutability": "view",
      "type": "function"
    },
    {
      "inputs": [
        {
          "internalType": "bytes4",
          "name": "interfaceId",
          "type": "bytes4"
        }
      ],
      "name": "supportsInterface",
      "outputs": [
        {
          "internalType": "bool",
          "name": "",
          "type": "bool"
        }
      ],
      "stateMutability": "view",
      "type": "function"
    },
    {
      "inputs": [
        {
          "internalType": "uint256",
          "name": "",
          "type": "uint256"
        }
      ],
      "name": "totalShares",
      "outputs": [
        {
          "internalType": "uint256",
          "name": "",
          "type": "uint256"
        }
      ],
      "stateMutability": "view",
      "type": "function"
    },
    {
      "inputs": [
        {
          "internalType": "address",
          "name": "newOwner",
          "type": "address"
        }
      ],
      "name": "transferOwnership",
      "outputs": [],
      "stateMutability": "nonpayable",
      "type": "function"
    },
    {
      "inputs": [
        {
          "internalType": "uint256",
          "name": "total",
          "type": "uint256"
        },
        {
          "internalType": "uint256",
          "name": "pricePerShare",
          "type": "uint256"
        },
        {
          "internalType": "string",
          "name": "ipfsURI",
          "type": "string"
        }
      ],
      "name": "createHorse",
      "outputs": [],
      "stateMutability": "nonpayable",
      "type": "function"
    },
    {
      "inputs": [
        {
          "internalType": "uint256",
          "name": "id",
          "type": "uint256"
        }
      ],
      "name": "uri",
      "outputs": [
        {
          "internalType": "string",
          "name": "",
          "type": "string"
        }
      ],
      "stateMutability": "view",
      "type": "function"
    }
  ],
  "bytecode": "0x608060405234801562000010575f80fd5b503360405180602001604052805f8152506200003281620000fe60201b60201c565b505f73ffffffffffffffffffffffffffffffffffffffff168173ffffffffffffffffffffffffffffffffffffffff1603620000a6575f6040517f1e4fbdf70000000000000000000000000000000000000000000000000000000081526004016200009d919062000219565b60405180910390fd5b620000b7816200011360201b60201c565b503360055f6101000a81548173ffffffffffffffffffffffffffffffffffffffff021916908373ffffffffffffffffffffffffffffffffffffffff1602179055506200057c565b80600290816200010f919062000498565b5050565b5f60035f9054906101000a900473ffffffffffffffffffffffffffffffffffffffff1690508160035f6101000a81548173ffffffffffffffffffffffffffffffffffffffff021916908373ffffffffffffffffffffffffffffffffffffffff1602179055508173ffffffffffffffffffffffffffffffffffffffff168173ffffffffffffffffffffffffffffffffffffffff167f8be0079c531659141344cd1fd0a4f28419497f9722a3daafe3b4186f6b6457e060405160405180910390a35050565b5f73ffffffffffffffffffffffffffffffffffffffff82169050919050565b5f6200020182620001d6565b9050919050565b6200021381620001f5565b82525050565b5f6020820190506200022e5f83018462000208565b92915050565b5f81519050919050565b7f4e487b71000000000000000000000000000000000000000000000000000000005f52604160045260245ffd5b7f4e487b71000000000000000000000000000000000000000000000000000000005f52602260045260245ffd5b5f6002820490506001821680620002b057607f821691505b602082108103620002c657620002c56200026b565b5b50919050565b5f819050815f5260205f209050919050565b5f6020601f8301049050919050565b5f82821b905092915050565b5f600883026200032a7fffffffffffffffffffffffffffffffffffffffffffffffffffffffffffffffff82620002ed565b620003368683620002ed565b95508019841693508086168417925050509392505050565b5f819050919050565b5f819050919050565b5f620003806200037a62000374846200034e565b62000357565b6200034e565b9050919050565b5f819050919050565b6200039b8362000360565b620003b3620003aa8262000387565b848454620002f9565b825550505050565b5f90565b620003c9620003bb565b620003d681848462000390565b505050565b5b81811015620003fd57620003f15f82620003bf565b600181019050620003dc565b5050565b601f8211156200044c576200041681620002cc565b6200042184620002de565b8101602085101562000431578190505b620004496200044085620002de565b830182620003db565b50505b505050565b5f82821c905092915050565b5f6200046e5f198460080262000451565b1980831691505092915050565b5f6200048883836200045d565b9150826002028217905092915050565b620004a38262000234565b67ffffffffffffffff811115620004bf57620004be6200023e565b5b620004cb825462000298565b620004d882828562000401565b5f60209050601f8311600181146200050e575f8415620004f9578287015190505b6200050585826200047b565b86555062000574565b601f1984166200051e86620002cc565b5f5b82811015620005475784890151825560018201915060208501945060208101905062000520565b8683101562000567578489015162000563601f8916826200045d565b8355505b6001600288020188555050505b505050505050565b612862806200058a5f395ff3fe608060405234801561000f575f80fd5b50600436106100fd575f3560e01c8063715018a611610095578063a22cb46511610064578063a22cb465146102bd578063e985e9c5146102d9578063f242432a14610309578063f2fde38b14610325576100fd565b8063715018a614610249578063812873e2146102535780638c93b4491461026f5780638da5cb5b1461029f576100fd565b8063195e02ff116100d1578063195e02ff146101c15780632eb2c2d6146101df5780634bde38c8146101fb5780634e1273f414610219576100fd565b8062fdd58e1461010157806301ffc9a7146101315780630e89341c1461016157806313f2dad014610191575b5f80fd5b61011b6004803603810190610116919061185d565b610341565b60405161012891906118aa565b60405180910390f35b61014b60048036038101906101469190611918565b610396565b604051610158919061195d565b60405180910390f35b61017b60048036038101906101769190611976565b610477565b6040516101889190611a2b565b60405180910390f35b6101ab60048036038101906101a69190611976565b610518565b6040516101b891906118aa565b60405180910390f35b6101c961052d565b6040516101d691906118aa565b60405180910390f35b6101f960048036038101906101f49190611c3b565b610533565b005b6102036105da565b6040516102109190611d15565b60405180910390f35b610233600480360381019061022e9190611dee565b6105ff565b6040516102409190611f1b565b60405180910390f35b61025161070c565b005b61026d60048036038101906102689190611fd9565b61071f565b005b61028960048036038101906102849190611976565b61080b565b60405161029691906118aa565b60405180910390f35b6102a7610820565b6040516102b49190611d15565b60405180910390f35b6102d760048036038101906102d2919061206f565b610848565b005b6102f360048036038101906102ee91906120ad565b61085e565b604051610300919061195d565b60405180910390f35b610323600480360381019061031e91906120eb565b6108ec565b005b61033f600480360381019061033a919061217e565b610993565b005b5f805f8381526020019081526020015f205f8473ffffffffffffffffffffffffffffffffffffffff1673ffffffffffffffffffffffffffffffffffffffff1681526020019081526020015f2054905092915050565b5f7fd9b67a26000000000000000000000000000000000000000000000000000000007bffffffffffffffffffffffffffffffffffffffffffffffffffffffff1916827bffffffffffffffffffffffffffffffffffffffffffffffffffffffff1916148061046057507f0e89341c000000000000000000000000000000000000000000000000000000007bffffffffffffffffffffffffffffffffffffffffffffffffffffffff1916827bffffffffffffffffffffffffffffffffffffffffffffffffffffffff1916145b80610470575061046f82610a17565b5b9050919050565b606060085f8381526020019081526020015f208054610495906121d6565b80601f01602080910402602001604051908101604052809291908181526020018280546104c1906121d6565b801561050c5780601f106104e35761010080835404028352916020019161050c565b820191905f5260205f20905b8154815290600101906020018083116104ef57829003601f168201915b50505050509050919050565b6006602052805f5260405f205f915090505481565b60045481565b5f61053c610a80565b90508073ffffffffffffffffffffffffffffffffffffffff168673ffffffffffffffffffffffffffffffffffffffff1614158015610581575061057f868261085e565b155b156105c55780866040517fe237d9220000000000000000000000000000000000000000000000000000000081526004016105bc929190612206565b60405180910390fd5b6105d28686868686610a87565b505050505050565b60055f9054906101000a900473ffffffffffffffffffffffffffffffffffffffff1681565b6060815183511461064b57815183516040517f5b05999100000000000000000000000000000000000000000000000000000000815260040161064292919061222d565b60405180910390fd5b5f835167ffffffffffffffff81111561066757610666611a4f565b5b6040519080825280602002602001820160405280156106955781602001602082028036833780820191505090505b5090505f5b8451811015610701576106d16106b98287610b7b90919063ffffffff16565b6106cc8387610b8e90919063ffffffff16565b610341565b8282815181106106e4576106e3612254565b5b602002602001018181525050806106fa906122ae565b905061069a565b508091505092915050565b610714610ba1565b61071d5f610c28565b565b5f60045f815480929190610732906122ae565b9190505590505f6064600a8661074891906122f5565b6107529190612363565b90505f81866107619190612393565b905061077d33848360405180602001604052805f815250610ceb565b6107b860055f9054906101000a900473ffffffffffffffffffffffffffffffffffffffff16848460405180602001604052805f815250610ceb565b8560065f8581526020019081526020015f20819055508460075f8581526020019081526020015f20819055508360085f8581526020019081526020015f2090816108029190612563565b50505050505050565b6007602052805f5260405f205f915090505481565b5f60035f9054906101000a900473ffffffffffffffffffffffffffffffffffffffff16905090565b61085a610853610a80565b8383610d80565b5050565b5f60015f8473ffffffffffffffffffffffffffffffffffffffff1673ffffffffffffffffffffffffffffffffffffffff1681526020019081526020015f205f8373ffffffffffffffffffffffffffffffffffffffff1673ffffffffffffffffffffffffffffffffffffffff1681526020019081526020015f205f9054906101000a900460ff16905092915050565b5f6108f5610a80565b90508073ffffffffffffffffffffffffffffffffffffffff168673ffffffffffffffffffffffffffffffffffffffff161415801561093a5750610938868261085e565b155b1561097e5780866040517fe237d922000000000000000000000000000000000000000000000000000000008152600401610975929190612206565b60405180910390fd5b61098b8686868686610ee9565b505050505050565b61099b610ba1565b5f73ffffffffffffffffffffffffffffffffffffffff168173ffffffffffffffffffffffffffffffffffffffff1603610a0b575f6040517f1e4fbdf7000000000000000000000000000000000000000000000000000000008152600401610a029190611d15565b60405180910390fd5b610a1481610c28565b50565b5f7f01ffc9a7000000000000000000000000000000000000000000000000000000007bffffffffffffffffffffffffffffffffffffffffffffffffffffffff1916827bffffffffffffffffffffffffffffffffffffffffffffffffffffffff1916149050919050565b5f33905090565b5f73ffffffffffffffffffffffffffffffffffffffff168473ffffffffffffffffffffffffffffffffffffffff1603610af7575f6040517f57f447ce000000000000000000000000000000000000000000000000000000008152600401610aee9190611d15565b60405180910390fd5b5f73ffffffffffffffffffffffffffffffffffffffff168573ffffffffffffffffffffffffffffffffffffffff1603610b67575f6040517f01a83514000000000000000000000000000000000000000000000000000000008152600401610b5e9190611d15565b60405180910390fd5b610b748585858585610fef565b5050505050565b5f60208202602084010151905092915050565b5f60208202602084010151905092915050565b610ba9610a80565b73ffffffffffffffffffffffffffffffffffffffff16610bc7610820565b73ffffffffffffffffffffffffffffffffffffffff1614610c2657610bea610a80565b6040517f118cdaa7000000000000000000000000000000000000000000000000000000008152600401610c1d9190611d15565b60405180910390fd5b565b5f60035f9054906101000a900473ffffffffffffffffffffffffffffffffffffffff1690508160035f6101000a81548173ffffffffffffffffffffffffffffffffffffffff021916908373ffffffffffffffffffffffffffffffffffffffff1602179055508173ffffffffffffffffffffffffffffffffffffffff168173ffffffffffffffffffffffffffffffffffffffff167f8be0079c531659141344cd1fd0a4f28419497f9722a3daafe3b4186f6b6457e060405160405180910390a35050565b5f73ffffffffffffffffffffffffffffffffffffffff168473ffffffffffffffffffffffffffffffffffffffff1603610d5b575f6040517f57f447ce000000000000000000000000000000000000000000000000000000008152600401610d529190611d15565b60405180910390fd5b5f80610d67858561109b565b91509150610d785f87848487610fef565b505050505050565b5f73ffffffffffffffffffffffffffffffffffffffff168273ffffffffffffffffffffffffffffffffffffffff1603610df0575f6040517fced3e100000000000000000000000000000000000000000000000000000000008152600401610de79190611d15565b60405180910390fd5b8060015f8573ffffffffffffffffffffffffffffffffffffffff1673ffffffffffffffffffffffffffffffffffffffff1681526020019081526020015f205f8473ffffffffffffffffffffffffffffffffffffffff1673ffffffffffffffffffffffffffffffffffffffff1681526020019081526020015f205f6101000a81548160ff0219169083151502179055508173ffffffffffffffffffffffffffffffffffffffff168373ffffffffffffffffffffffffffffffffffffffff167f17307eab39ab6107e8899845ad3d59bd9653f200f220920489ca2b5937696c3183604051610edc919061195d565b60405180910390a3505050565b5f73ffffffffffffffffffffffffffffffffffffffff168473ffffffffffffffffffffffffffffffffffffffff1603610f59575f6040517f57f447ce000000000000000000000000000000000000000000000000000000008152600401610f509190611d15565b60405180910390fd5b5f73ffffffffffffffffffffffffffffffffffffffff168573ffffffffffffffffffffffffffffffffffffffff1603610fc9575f6040517f01a83514000000000000000000000000000000000000000000000000000000008152600401610fc09190611d15565b60405180910390fd5b5f80610fd5858561109b565b91509150610fe68787848487610fef565b50505050505050565b610ffb858585856110cb565b5f73ffffffffffffffffffffffffffffffffffffffff168473ffffffffffffffffffffffffffffffffffffffff1614611094575f611037610a80565b90506001845103611083575f6110565f86610b8e90919063ffffffff16565b90505f61106c5f86610b8e90919063ffffffff16565b905061107c838989858589611461565b5050611092565b611091818787878787611610565b5b505b5050505050565b60608060405191506001825283602083015260408201905060018152826020820152604081016040529250929050565b805182511461111557815181516040517f5b05999100000000000000000000000000000000000000000000000000000000815260040161110c92919061222d565b60405180910390fd5b5f61111e610a80565b90505f5b8351811015611320575f61113f8286610b8e90919063ffffffff16565b90505f6111558386610b8e90919063ffffffff16565b90505f73ffffffffffffffffffffffffffffffffffffffff168873ffffffffffffffffffffffffffffffffffffffff1614611278575f805f8481526020019081526020015f205f8a73ffffffffffffffffffffffffffffffffffffffff1673ffffffffffffffffffffffffffffffffffffffff1681526020019081526020015f205490508181101561122457888183856040517f03dee4c500000000000000000000000000000000000000000000000000000000815260040161121b9493929190612632565b60405180910390fd5b8181035f808581526020019081526020015f205f8b73ffffffffffffffffffffffffffffffffffffffff1673ffffffffffffffffffffffffffffffffffffffff1681526020019081526020015f2081905550505b5f73ffffffffffffffffffffffffffffffffffffffff168773ffffffffffffffffffffffffffffffffffffffff161461130d57805f808481526020019081526020015f205f8973ffffffffffffffffffffffffffffffffffffffff1673ffffffffffffffffffffffffffffffffffffffff1681526020019081526020015f205f8282546113059190612675565b925050819055505b505080611319906122ae565b9050611122565b5060018351036113db575f61133e5f85610b8e90919063ffffffff16565b90505f6113545f85610b8e90919063ffffffff16565b90508573ffffffffffffffffffffffffffffffffffffffff168773ffffffffffffffffffffffffffffffffffffffff168473ffffffffffffffffffffffffffffffffffffffff167fc3d58168c5ae7397731d063d5bbf3d657854427343f4c083240f7aacaa2d0f6285856040516113cc92919061222d565b60405180910390a4505061145a565b8373ffffffffffffffffffffffffffffffffffffffff168573ffffffffffffffffffffffffffffffffffffffff168273ffffffffffffffffffffffffffffffffffffffff167f4a39dc06d4c0dbc64b70af90fd698a233a518aa5d07e595d983b8c0526c8f7fb86866040516114519291906126a8565b60405180910390a45b5050505050565b5f8473ffffffffffffffffffffffffffffffffffffffff163b1115611608578373ffffffffffffffffffffffffffffffffffffffff1663f23a6e6187878686866040518663ffffffff1660e01b81526004016114c195949392919061272f565b6020604051808303815f875af19250505080156114fc57506040513d601f19601f820116820180604052508101906114f9919061279b565b60015b61157d573d805f811461152a576040519150601f19603f3d011682016040523d82523d5f602084013e61152f565b606091505b505f81510361157557846040517f57f447ce00000000000000000000000000000000000000000000000000000000815260040161156c9190611d15565b60405180910390fd5b805181602001fd5b63f23a6e6160e01b7bffffffffffffffffffffffffffffffffffffffffffffffffffffffff1916817bffffffffffffffffffffffffffffffffffffffffffffffffffffffff19161461160657846040517f57f447ce0000000000000000000000000000000000000000000000000000000081526004016115fd9190611d15565b60405180910390fd5b505b505050505050565b5f8473ffffffffffffffffffffffffffffffffffffffff163b11156117b7578373ffffffffffffffffffffffffffffffffffffffff1663bc197c8187878686866040518663ffffffff1660e01b81526004016116709594939291906127c6565b6020604051808303815f875af19250505080156116ab57506040513d601f19601f820116820180604052508101906116a8919061279b565b60015b61172c573d805f81146116d9576040519150601f19603f3d011682016040523d82523d5f602084013e6116de565b606091505b505f81510361172457846040517f57f447ce00000000000000000000000000000000000000000000000000000000815260040161171b9190611d15565b60405180910390fd5b805181602001fd5b63bc197c8160e01b7bffffffffffffffffffffffffffffffffffffffffffffffffffffffff1916817bffffffffffffffffffffffffffffffffffffffffffffffffffffffff1916146117b557846040517f57f447ce0000000000000000000000000000000000000000000000000000000081526004016117ac9190611d15565b60405180910390fd5b505b505050505050565b5f604051905090565b5f80fd5b5f80fd5b5f73ffffffffffffffffffffffffffffffffffffffff82169050919050565b5f6117f9826117d0565b9050919050565b611809816117ef565b8114611813575f80fd5b50565b5f8135905061182481611800565b92915050565b5f819050919050565b61183c8161182a565b8114611846575f80fd5b50565b5f8135905061185781611833565b92915050565b5f8060408385031215611873576118726117c8565b5b5f61188085828601611816565b925050602061189185828601611849565b9150509250929050565b6118a48161182a565b82525050565b5f6020820190506118bd5f83018461189b565b92915050565b5f7fffffffff0000000000000000000000000000000000000000000000000000000082169050919050565b6118f7816118c3565b8114611901575f80fd5b50565b5f81359050611912816118ee565b92915050565b5f6020828403121561192d5761192c6117c8565b5b5f61193a84828501611904565b91505092915050565b5f8115159050919050565b61195781611943565b82525050565b5f6020820190506119705f83018461194e565b92915050565b5f6020828403121561198b5761198a6117c8565b5b5f61199884828501611849565b91505092915050565b5f81519050919050565b5f82825260208201905092915050565b5f5b838110156119d85780820151818401526020810190506119bd565b5f8484015250505050565b5f601f19601f8301169050919050565b5f6119fd826119a1565b611a0781856119ab565b9350611a178185602086016119bb565b611a20816119e3565b840191505092915050565b5f6020820190508181035f830152611a4381846119f3565b905092915050565b5f80fd5b7f4e487b71000000000000000000000000000000000000000000000000000000005f52604160045260245ffd5b611a85826119e3565b810181811067ffffffffffffffff82111715611aa457611aa3611a4f565b5b80604052505050565b5f611ab66117bf565b9050611ac28282611a7c565b919050565b5f67ffffffffffffffff821115611ae157611ae0611a4f565b5b602082029050602081019050919050565b5f80fd5b5f611b08611b0384611ac7565b611aad565b90508083825260208201905060208402830185811115611b2b57611b2a611af2565b5b835b81811015611b545780611b408882611849565b845260208401935050602081019050611b2d565b5050509392505050565b5f82601f830112611b7257611b71611a4b565b5b8135611b82848260208601611af6565b91505092915050565b5f80fd5b5f67ffffffffffffffff821115611ba957611ba8611a4f565b5b611bb2826119e3565b9050602081019050919050565b828183375f83830152505050565b5f611bdf611bda84611b8f565b611aad565b905082815260208101848484011115611bfb57611bfa611b8b565b5b611c06848285611bbf565b509392505050565b5f82601f830112611c2257611c21611a4b565b5b8135611c32848260208601611bcd565b91505092915050565b5f805f805f60a08688031215611c5457611c536117c8565b5b5f611c6188828901611816565b9550506020611c7288828901611816565b945050604086013567ffffffffffffffff811115611c9357611c926117cc565b5b611c9f88828901611b5e565b935050606086013567ffffffffffffffff811115611cc057611cbf6117cc565b5b611ccc88828901611b5e565b925050608086013567ffffffffffffffff811115611ced57611cec6117cc565b5b611cf988828901611c0e565b9150509295509295909350565b611d0f816117ef565b82525050565b5f602082019050611d285f830184611d06565b92915050565b5f67ffffffffffffffff821115611d4857611d47611a4f565b5b602082029050602081019050919050565b5f611d6b611d6684611d2e565b611aad565b90508083825260208201905060208402830185811115611d8e57611d8d611af2565b5b835b81811015611db75780611da38882611816565b845260208401935050602081019050611d90565b5050509392505050565b5f82601f830112611dd557611dd4611a4b565b5b8135611de5848260208601611d59565b91505092915050565b5f8060408385031215611e0457611e036117c8565b5b5f83013567ffffffffffffffff811115611e2157611e206117cc565b5b611e2d85828601611dc1565b925050602083013567ffffffffffffffff811115611e4e57611e4d6117cc565b5b611e5a85828601611b5e565b9150509250929050565b5f81519050919050565b5f82825260208201905092915050565b5f819050602082019050919050565b611e968161182a565b82525050565b5f611ea78383611e8d565b60208301905092915050565b5f602082019050919050565b5f611ec982611e64565b611ed38185611e6e565b9350611ede83611e7e565b805f5b83811015611f0e578151611ef58882611e9c565b9750611f0083611eb3565b925050600181019050611ee1565b5085935050505092915050565b5f6020820190508181035f830152611f338184611ebf565b905092915050565b5f67ffffffffffffffff821115611f5557611f54611a4f565b5b611f5e826119e3565b9050602081019050919050565b5f611f7d611f7884611f3b565b611aad565b905082815260208101848484011115611f9957611f98611b8b565b5b611fa4848285611bbf565b509392505050565b5f82601f830112611fc057611fbf611a4b565b5b8135611fd0848260208601611f6b565b91505092915050565b5f805f60608486031215611ff057611fef6117c8565b5b5f611ffd86828701611849565b935050602061200e86828701611849565b925050604084013567ffffffffffffffff81111561202f5761202e6117cc565b5b61203b86828701611fac565b9150509250925092565b61204e81611943565b8114612058575f80fd5b50565b5f8135905061206981612045565b92915050565b5f8060408385031215612085576120846117c8565b5b5f61209285828601611816565b92505060206120a38582860161205b565b9150509250929050565b5f80604083850312156120c3576120c26117c8565b5b5f6120d085828601611816565b92505060206120e185828601611816565b9150509250929050565b5f805f805f60a08688031215612104576121036117c8565b5b5f61211188828901611816565b955050602061212288828901611816565b945050604061213388828901611849565b935050606061214488828901611849565b925050608086013567ffffffffffffffff811115612165576121646117cc565b5b61217188828901611c0e565b9150509295509295909350565b5f60208284031215612193576121926117c8565b5b5f6121a084828501611816565b91505092915050565b7f4e487b71000000000000000000000000000000000000000000000000000000005f52602260045260245ffd5b5f60028204905060018216806121ed57607f821691505b602082108103612200576121ff6121a9565b5b50919050565b5f6040820190506122195f830185611d06565b6122266020830184611d06565b9392505050565b5f6040820190506122405f83018561189b565b61224d602083018461189b565b9392505050565b7f4e487b71000000000000000000000000000000000000000000000000000000005f52603260045260245ffd5b7f4e487b71000000000000000000000000000000000000000000000000000000005f52601160045260245ffd5b5f6122b88261182a565b91507fffffffffffffffffffffffffffffffffffffffffffffffffffffffffffffffff82036122ea576122e9612281565b5b600182019050919050565b5f6122ff8261182a565b915061230a8361182a565b92508282026123188161182a565b9150828204841483151761232f5761232e612281565b5b5092915050565b7f4e487b71000000000000000000000000000000000000000000000000000000005f52601260045260245ffd5b5f61236d8261182a565b91506123788361182a565b92508261238857612387612336565b5b828204905092915050565b5f61239d8261182a565b91506123a88361182a565b92508282039050818111156123c0576123bf612281565b5b92915050565b5f819050815f5260205f209050919050565b5f6020601f8301049050919050565b5f82821b905092915050565b5f600883026124227fffffffffffffffffffffffffffffffffffffffffffffffffffffffffffffffff826123e7565b61242c86836123e7565b95508019841693508086168417925050509392505050565b5f819050919050565b5f61246761246261245d8461182a565b612444565b61182a565b9050919050565b5f819050919050565b6124808361244d565b61249461248c8261246e565b8484546123f3565b825550505050565b5f90565b6124a861249c565b6124b3818484612477565b505050565b5b818110156124d6576124cb5f826124a0565b6001810190506124b9565b5050565b601f82111561251b576124ec816123c6565b6124f5846123d8565b81016020851015612504578190505b612518612510856123d8565b8301826124b8565b50505b505050565b5f82821c905092915050565b5f61253b5f1984600802612520565b1980831691505092915050565b5f612553838361252c565b9150826002028217905092915050565b61256c826119a1565b67ffffffffffffffff81111561258557612584611a4f565b5b61258f82546121d6565b61259a8282856124da565b5f60209050601f8311600181146125cb575f84156125b9578287015190505b6125c38582612548565b86555061262a565b601f1984166125d9866123c6565b5f5b82811015612600578489015182556001820191506020850194506020810190506125db565b8683101561261d5784890151612619601f89168261252c565b8355505b6001600288020188555050505b505050505050565b5f6080820190506126455f830187611d06565b612652602083018661189b565b61265f604083018561189b565b61266c606083018461189b565b95945050505050565b5f61267f8261182a565b915061268a8361182a565b92508282019050808211156126a2576126a1612281565b5b92915050565b5f6040820190508181035f8301526126c08185611ebf565b905081810360208301526126d48184611ebf565b90509392505050565b5f81519050919050565b5f82825260208201905092915050565b5f612701826126dd565b61270b81856126e7565b935061271b8185602086016119bb565b612724816119e3565b840191505092915050565b5f60a0820190506127425f830188611d06565b61274f6020830187611d06565b61275c604083018661189b565b612769606083018561189b565b818103608083015261277b81846126f7565b90509695505050505050565b5f81519050612795816118ee565b92915050565b5f602082840312156127b0576127af6117c8565b5b5f6127bd84828501612787565b91505092915050565b5f60a0820190506127d95f830188611d06565b6127e66020830187611d06565b81810360408301526127f88186611ebf565b9050818103606083015261280c8185611ebf565b9050818103608083015261282081846126f7565b9050969550505050505056fea2646970667358221220ad5bc0ad685c305f972ca1853f15a1c2f4655a20ca893b86dd69af9bf6e2fd4464736f6c63430008150033",
  "immutableReferences": {},
  "source": "// SPDX-License-Identifier: MIT\npragma solidity ^0.8.0;\n\nimport \"@openzeppelin/contracts/token/ERC1155/ERC1155.sol\";\nimport \"@openzeppelin/contracts/access/Ownable.sol\";\n\ncontract HorseFactory is ERC1155, Ownable {\n    uint256 public nextHorseId;\n    address public platform;\n\n    mapping(uint256 => uint256) public totalShares;\n    mapping(uint256 => uint256) public sharePrice;\n    mapping(uint256 => string) private _tokenURIs;\n\n    constructor() ERC1155(\"\") Ownable(msg.sender) {\n        platform = msg.sender;\n    }\n\n    function createHorse(\n        uint256 total,\n        uint256 pricePerShare,\n        string memory ipfsURI\n    ) external {\n        uint256 horseId = nextHorseId++;\n        uint256 platformCut = (total * 10) / 100;\n        uint256 ownerCut = total - platformCut;\n\n        _mint(msg.sender, horseId, ownerCut, \"\");\n        _mint(platform, horseId, platformCut, \"\");\n\n        totalShares[horseId] = total;\n        sharePrice[horseId] = pricePerShare;\n        _tokenURIs[horseId] = ipfsURI;\n    }\n\n    function uri(uint256 id) public view override returns (string memory) {\n        return _tokenURIs[id];\n    }\n}\n",
  "sourcePath": "/Users/alexanderhaire/SodaPop/contracts/HorseFactory.sol",
  "compiler": {
    "name": "solc",
    "version": "0.8.21+commit.d9974bed.Emscripten.clang"
  },
  "schemaVersion": "3.4.16",
  "updatedAt": "2025-06-15T21:17:01.800Z",
  "devdoc": {
    "errors": {
      "ERC1155InsufficientBalance(address,uint256,uint256,uint256)": [
        {
          "details": "Indicates an error related to the current `balance` of a `sender`. Used in transfers.",
          "params": {
            "balance": "Current balance for the interacting account.",
            "needed": "Minimum amount required to perform a transfer.",
            "sender": "Address whose tokens are being transferred.",
            "tokenId": "Identifier number of a token."
          }
        }
      ],
      "ERC1155InvalidApprover(address)": [
        {
          "details": "Indicates a failure with the `approver` of a token to be approved. Used in approvals.",
          "params": {
            "approver": "Address initiating an approval operation."
          }
        }
      ],
      "ERC1155InvalidArrayLength(uint256,uint256)": [
        {
          "details": "Indicates an array length mismatch between ids and values in a safeBatchTransferFrom operation. Used in batch transfers.",
          "params": {
            "idsLength": "Length of the array of token identifiers",
            "valuesLength": "Length of the array of token amounts"
          }
        }
      ],
      "ERC1155InvalidOperator(address)": [
        {
          "details": "Indicates a failure with the `operator` to be approved. Used in approvals.",
          "params": {
            "operator": "Address that may be allowed to operate on tokens without being their owner."
          }
        }
      ],
      "ERC1155InvalidReceiver(address)": [
        {
          "details": "Indicates a failure with the token `receiver`. Used in transfers.",
          "params": {
            "receiver": "Address to which tokens are being transferred."
          }
        }
      ],
      "ERC1155InvalidSender(address)": [
        {
          "details": "Indicates a failure with the token `sender`. Used in transfers.",
          "params": {
            "sender": "Address whose tokens are being transferred."
          }
        }
      ],
      "ERC1155MissingApprovalForAll(address,address)": [
        {
          "details": "Indicates a failure with the `operator`s approval. Used in transfers.",
          "params": {
            "operator": "Address that may be allowed to operate on tokens without being their owner.",
            "owner": "Address of the current owner of a token."
          }
        }
      ],
      "OwnableInvalidOwner(address)": [
        {
          "details": "The owner is not a valid owner account. (eg. `address(0)`)"
        }
      ],
      "OwnableUnauthorizedAccount(address)": [
        {
          "details": "The caller account is not authorized to perform an operation."
        }
      ]
    },
    "events": {
      "ApprovalForAll(address,address,bool)": {
        "details": "Emitted when `account` grants or revokes permission to `operator` to transfer their tokens, according to `approved`."
      },
      "TransferBatch(address,address,address,uint256[],uint256[])": {
        "details": "Equivalent to multiple {TransferSingle} events, where `operator`, `from` and `to` are the same for all transfers."
      },
      "TransferSingle(address,address,address,uint256,uint256)": {
        "details": "Emitted when `value` amount of tokens of type `id` are transferred from `from` to `to` by `operator`."
      },
      "URI(string,uint256)": {
        "details": "Emitted when the URI for token type `id` changes to `value`, if it is a non-programmatic URI. If an {URI} event was emitted for `id`, the standard https://eips.ethereum.org/EIPS/eip-1155#metadata-extensions[guarantees] that `value` will equal the value returned by {IERC1155MetadataURI-uri}."
      }
    },
    "kind": "dev",
    "methods": {
      "balanceOf(address,uint256)": {
        "details": "See {IERC1155-balanceOf}."
      },
      "balanceOfBatch(address[],uint256[])": {
        "details": "See {IERC1155-balanceOfBatch}. Requirements: - `accounts` and `ids` must have the same length."
      },
      "isApprovedForAll(address,address)": {
        "details": "See {IERC1155-isApprovedForAll}."
      },
      "owner()": {
        "details": "Returns the address of the current owner."
      },
      "renounceOwnership()": {
        "details": "Leaves the contract without owner. It will not be possible to call `onlyOwner` functions. Can only be called by the current owner. NOTE: Renouncing ownership will leave the contract without an owner, thereby disabling any functionality that is only available to the owner."
      },
      "safeBatchTransferFrom(address,address,uint256[],uint256[],bytes)": {
        "details": "See {IERC1155-safeBatchTransferFrom}."
      },
      "safeTransferFrom(address,address,uint256,uint256,bytes)": {
        "details": "See {IERC1155-safeTransferFrom}."
      },
      "setApprovalForAll(address,bool)": {
        "details": "See {IERC1155-setApprovalForAll}."
      },
      "supportsInterface(bytes4)": {
        "details": "See {IERC165-supportsInterface}."
      },
      "transferOwnership(address)": {
        "details": "Transfers ownership of the contract to a new account (`newOwner`). Can only be called by the current owner."
      }
    },
    "version": 1
  },
  "userdoc": {
    "kind": "user",
    "methods": {},
    "version": 1
  }
}