{
  "contractName": "HorseToken",
  "abi": [
    {
      "inputs": [
        {
          "internalType": "string",
          "name": "uri",
          "type": "string"
        }
      ],
      "stateMutability": "nonpayable",
      "type": "constructor"
    },
    {
      "inputs": [
        {
          "internalType": "address",
          "name": "sender",
          "type": "address"
        },
        {
          "internalType": "uint256",
          "name": "balance",
          "type": "uint256"
        },
        {
          "internalType": "uint256",
          "name": "needed",
          "type": "uint256"
        },
        {
          "internalType": "uint256",
          "name": "tokenId",
          "type": "uint256"
        }
      ],
      "name": "ERC1155InsufficientBalance",
      "type": "error"
    },
    {
      "inputs": [
        {
          "internalType": "address",
          "name": "approver",
          "type": "address"
        }
      ],
      "name": "ERC1155InvalidApprover",
      "type": "error"
    },
    {
      "inputs": [
        {
          "internalType": "uint256",
          "name": "idsLength",
          "type": "uint256"
        },
        {
          "internalType": "uint256",
          "name": "valuesLength",
          "type": "uint256"
        }
      ],
      "name": "ERC1155InvalidArrayLength",
      "type": "error"
    },
    {
      "inputs": [
        {
          "internalType": "address",
          "name": "operator",
          "type": "address"
        }
      ],
      "name": "ERC1155InvalidOperator",
      "type": "error"
    },
    {
      "inputs": [
        {
          "internalType": "address",
          "name": "receiver",
          "type": "address"
        }
      ],
      "name": "ERC1155InvalidReceiver",
      "type": "error"
    },
    {
      "inputs": [
        {
          "internalType": "address",
          "name": "sender",
          "type": "address"
        }
      ],
      "name": "ERC1155InvalidSender",
      "type": "error"
    },
    {
      "inputs": [
        {
          "internalType": "address",
          "name": "operator",
          "type": "address"
        },
        {
          "internalType": "address",
          "name": "owner",
          "type": "address"
        }
      ],
      "name": "ERC1155MissingApprovalForAll",
      "type": "error"
    },
    {
      "inputs": [
        {
          "internalType": "address",
          "name": "owner",
          "type": "address"
        }
      ],
      "name": "OwnableInvalidOwner",
      "type": "error"
    },
    {
      "inputs": [
        {
          "internalType": "address",
          "name": "account",
          "type": "address"
        }
      ],
      "name": "OwnableUnauthorizedAccount",
      "type": "error"
    },
    {
      "anonymous": false,
      "inputs": [
        {
          "indexed": true,
          "internalType": "address",
          "name": "account",
          "type": "address"
        },
        {
          "indexed": true,
          "internalType": "address",
          "name": "operator",
          "type": "address"
        },
        {
          "indexed": false,
          "internalType": "bool",
          "name": "approved",
          "type": "bool"
        }
      ],
      "name": "ApprovalForAll",
      "type": "event"
    },
    {
      "anonymous": false,
      "inputs": [
        {
          "indexed": true,
          "internalType": "address",
          "name": "previousOwner",
          "type": "address"
        },
        {
          "indexed": true,
          "internalType": "address",
          "name": "newOwner",
          "type": "address"
        }
      ],
      "name": "OwnershipTransferred",
      "type": "event"
    },
    {
      "anonymous": false,
      "inputs": [
        {
          "indexed": true,
          "internalType": "address",
          "name": "operator",
          "type": "address"
        },
        {
          "indexed": true,
          "internalType": "address",
          "name": "from",
          "type": "address"
        },
        {
          "indexed": true,
          "internalType": "address",
          "name": "to",
          "type": "address"
        },
        {
          "indexed": false,
          "internalType": "uint256[]",
          "name": "ids",
          "type": "uint256[]"
        },
        {
          "indexed": false,
          "internalType": "uint256[]",
          "name": "values",
          "type": "uint256[]"
        }
      ],
      "name": "TransferBatch",
      "type": "event"
    },
    {
      "anonymous": false,
      "inputs": [
        {
          "indexed": true,
          "internalType": "address",
          "name": "operator",
          "type": "address"
        },
        {
          "indexed": true,
          "internalType": "address",
          "name": "from",
          "type": "address"
        },
        {
          "indexed": true,
          "internalType": "address",
          "name": "to",
          "type": "address"
        },
        {
          "indexed": false,
          "internalType": "uint256",
          "name": "id",
          "type": "uint256"
        },
        {
          "indexed": false,
          "internalType": "uint256",
          "name": "value",
          "type": "uint256"
        }
      ],
      "name": "TransferSingle",
      "type": "event"
    },
    {
      "anonymous": false,
      "inputs": [
        {
          "indexed": false,
          "internalType": "string",
          "name": "value",
          "type": "string"
        },
        {
          "indexed": true,
          "internalType": "uint256",
          "name": "id",
          "type": "uint256"
        }
      ],
      "name": "URI",
      "type": "event"
    },
    {
      "inputs": [
        {
          "internalType": "address",
          "name": "account",
          "type": "address"
        },
        {
          "internalType": "uint256",
          "name": "id",
          "type": "uint256"
        }
      ],
      "name": "balanceOf",
      "outputs": [
        {
          "internalType": "uint256",
          "name": "",
          "type": "uint256"
        }
      ],
      "stateMutability": "view",
      "type": "function",
      "constant": true
    },
    {
      "inputs": [
        {
          "internalType": "address[]",
          "name": "accounts",
          "type": "address[]"
        },
        {
          "internalType": "uint256[]",
          "name": "ids",
          "type": "uint256[]"
        }
      ],
      "name": "balanceOfBatch",
      "outputs": [
        {
          "internalType": "uint256[]",
          "name": "",
          "type": "uint256[]"
        }
      ],
      "stateMutability": "view",
      "type": "function",
      "constant": true
    },
    {
      "inputs": [
        {
          "internalType": "uint256",
          "name": "",
          "type": "uint256"
        }
      ],
      "name": "horseSupply",
      "outputs": [
        {
          "internalType": "uint256",
          "name": "",
          "type": "uint256"
        }
      ],
      "stateMutability": "view",
      "type": "function",
      "constant": true
    },
    {
      "inputs": [
        {
          "internalType": "address",
          "name": "account",
          "type": "address"
        },
        {
          "internalType": "address",
          "name": "operator",
          "type": "address"
        }
      ],
      "name": "isApprovedForAll",
      "outputs": [
        {
          "internalType": "bool",
          "name": "",
          "type": "bool"
        }
      ],
      "stateMutability": "view",
      "type": "function",
      "constant": true
    },
    {
      "inputs": [],
      "name": "owner",
      "outputs": [
        {
          "internalType": "address",
          "name": "",
          "type": "address"
        }
      ],
      "stateMutability": "view",
      "type": "function",
      "constant": true
    },
    {
      "inputs": [],
      "name": "renounceOwnership",
      "outputs": [],
      "stateMutability": "nonpayable",
      "type": "function"
    },
    {
      "inputs": [
        {
          "internalType": "address",
          "name": "from",
          "type": "address"
        },
        {
          "internalType": "address",
          "name": "to",
          "type": "address"
        },
        {
          "internalType": "uint256[]",
          "name": "ids",
          "type": "uint256[]"
        },
        {
          "internalType": "uint256[]",
          "name": "values",
          "type": "uint256[]"
        },
        {
          "internalType": "bytes",
          "name": "data",
          "type": "bytes"
        }
      ],
      "name": "safeBatchTransferFrom",
      "outputs": [],
      "stateMutability": "nonpayable",
      "type": "function"
    },
    {
      "inputs": [
        {
          "internalType": "address",
          "name": "from",
          "type": "address"
        },
        {
          "internalType": "address",
          "name": "to",
          "type": "address"
        },
        {
          "internalType": "uint256",
          "name": "id",
          "type": "uint256"
        },
        {
          "internalType": "uint256",
          "name": "value",
          "type": "uint256"
        },
        {
          "internalType": "bytes",
          "name": "data",
          "type": "bytes"
        }
      ],
      "name": "safeTransferFrom",
      "outputs": [],
      "stateMutability": "nonpayable",
      "type": "function"
    },
    {
      "inputs": [
        {
          "internalType": "address",
          "name": "operator",
          "type": "address"
        },
        {
          "internalType": "bool",
          "name": "approved",
          "type": "bool"
        }
      ],
      "name": "setApprovalForAll",
      "outputs": [],
      "stateMutability": "nonpayable",
      "type": "function"
    },
    {
      "inputs": [
        {
          "internalType": "bytes4",
          "name": "interfaceId",
          "type": "bytes4"
        }
      ],
      "name": "supportsInterface",
      "outputs": [
        {
          "internalType": "bool",
          "name": "",
          "type": "bool"
        }
      ],
      "stateMutability": "view",
      "type": "function",
      "constant": true
    },
    {
      "inputs": [],
      "name": "totalSupply",
      "outputs": [
        {
          "internalType": "uint256",
          "name": "",
          "type": "uint256"
        }
      ],
      "stateMutability": "view",
      "type": "function",
      "constant": true
    },
    {
      "inputs": [
        {
          "internalType": "address",
          "name": "newOwner",
          "type": "address"
        }
      ],
      "name": "transferOwnership",
      "outputs": [],
      "stateMutability": "nonpayable",
      "type": "function"
    },
    {
      "inputs": [
        {
          "internalType": "address",
          "name": "to",
          "type": "address"
        },
        {
          "internalType": "uint256",
          "name": "id",
          "type": "uint256"
        },
        {
          "internalType": "uint256",
          "name": "amount",
          "type": "uint256"
        },
        {
          "internalType": "bytes",
          "name": "data",
          "type": "bytes"
        }
      ],
      "name": "mint",
      "outputs": [],
      "stateMutability": "nonpayable",
      "type": "function"
    },
    {
      "inputs": [
        {
          "internalType": "uint256",
          "name": "_id",
          "type": "uint256"
        }
      ],
      "name": "uri",
      "outputs": [
        {
          "internalType": "string",
          "name": "",
          "type": "string"
        }
      ],
      "stateMutability": "view",
      "type": "function",
      "constant": true
    },
    {
      "inputs": [
        {
          "internalType": "string",
          "name": "newuri",
          "type": "string"
        }
      ],
      "name": "setURI",
      "outputs": [],
      "stateMutability": "nonpayable",
      "type": "function"
    }
  ],
  "bytecode": "0x608060405234801562000010575f80fd5b5060405162002e1c38038062002e1c83398181016040528101906200003691906200033a565b33816200004981620000dd60201b60201c565b505f73ffffffffffffffffffffffffffffffffffffffff168173ffffffffffffffffffffffffffffffffffffffff1603620000bd575f6040517f1e4fbdf7000000000000000000000000000000000000000000000000000000008152600401620000b49190620003cc565b60405180910390fd5b620000ce81620000f260201b60201c565b505f6004819055505062000702565b8060029081620000ee91906200061e565b5050565b5f60035f9054906101000a900473ffffffffffffffffffffffffffffffffffffffff1690508160035f6101000a81548173ffffffffffffffffffffffffffffffffffffffff021916908373ffffffffffffffffffffffffffffffffffffffff1602179055508173ffffffffffffffffffffffffffffffffffffffff168173ffffffffffffffffffffffffffffffffffffffff167f8be0079c531659141344cd1fd0a4f28419497f9722a3daafe3b4186f6b6457e060405160405180910390a35050565b5f604051905090565b5f80fd5b5f80fd5b5f80fd5b5f80fd5b5f601f19601f8301169050919050565b7f4e487b71000000000000000000000000000000000000000000000000000000005f52604160045260245ffd5b6200021682620001ce565b810181811067ffffffffffffffff82111715620002385762000237620001de565b5b80604052505050565b5f6200024c620001b5565b90506200025a82826200020b565b919050565b5f67ffffffffffffffff8211156200027c576200027b620001de565b5b6200028782620001ce565b9050602081019050919050565b5f5b83811015620002b357808201518184015260208101905062000296565b5f8484015250505050565b5f620002d4620002ce846200025f565b62000241565b905082815260208101848484011115620002f357620002f2620001ca565b5b6200030084828562000294565b509392505050565b5f82601f8301126200031f576200031e620001c6565b5b815162000331848260208601620002be565b91505092915050565b5f60208284031215620003525762000351620001be565b5b5f82015167ffffffffffffffff811115620003725762000371620001c2565b5b620003808482850162000308565b91505092915050565b5f73ffffffffffffffffffffffffffffffffffffffff82169050919050565b5f620003b48262000389565b9050919050565b620003c681620003a8565b82525050565b5f602082019050620003e15f830184620003bb565b92915050565b5f81519050919050565b7f4e487b71000000000000000000000000000000000000000000000000000000005f52602260045260245ffd5b5f60028204905060018216806200043657607f821691505b6020821081036200044c576200044b620003f1565b5b50919050565b5f819050815f5260205f209050919050565b5f6020601f8301049050919050565b5f82821b905092915050565b5f60088302620004b07fffffffffffffffffffffffffffffffffffffffffffffffffffffffffffffffff8262000473565b620004bc868362000473565b95508019841693508086168417925050509392505050565b5f819050919050565b5f819050919050565b5f6200050662000500620004fa84620004d4565b620004dd565b620004d4565b9050919050565b5f819050919050565b6200052183620004e6565b6200053962000530826200050d565b8484546200047f565b825550505050565b5f90565b6200054f62000541565b6200055c81848462000516565b505050565b5b818110156200058357620005775f8262000545565b60018101905062000562565b5050565b601f821115620005d2576200059c8162000452565b620005a78462000464565b81016020851015620005b7578190505b620005cf620005c68562000464565b83018262000561565b50505b505050565b5f82821c905092915050565b5f620005f45f1984600802620005d7565b1980831691505092915050565b5f6200060e8383620005e3565b9150826002028217905092915050565b6200062982620003e7565b67ffffffffffffffff811115620006455762000644620001de565b5b6200065182546200041e565b6200065e82828562000587565b5f60209050601f83116001811462000694575f84156200067f578287015190505b6200068b858262000601565b865550620006fa565b601f198416620006a48662000452565b5f5b82811015620006cd57848901518255600182019150602085019450602081019050620006a6565b86831015620006ed5784890151620006e9601f891682620005e3565b8355505b6001600288020188555050505b505050505050565b61270c80620007105f395ff3fe608060405234801561000f575f80fd5b50600436106100f2575f3560e01c80634e1273f411610095578063a22cb46511610064578063a22cb46514610280578063e985e9c51461029c578063f242432a146102cc578063f2fde38b146102e8576100f2565b80634e1273f41461020c578063715018a61461023c578063731133e9146102465780638da5cb5b14610262576100f2565b80630e89341c116100d15780630e89341c1461017257806318160ddd146101a25780632eb2c2d6146101c05780632ed04a79146101dc576100f2565b8062fdd58e146100f657806301ffc9a71461012657806302fe530514610156575b5f80fd5b610110600480360381019061010b919061177d565b610304565b60405161011d91906117ca565b60405180910390f35b610140600480360381019061013b9190611838565b610359565b60405161014d919061187d565b60405180910390f35b610170600480360381019061016b91906119d2565b61043a565b005b61018c60048036038101906101879190611a19565b61044e565b6040516101999190611abe565b60405180910390f35b6101aa610460565b6040516101b791906117ca565b60405180910390f35b6101da60048036038101906101d59190611c40565b610466565b005b6101f660048036038101906101f19190611a19565b61050d565b60405161020391906117ca565b60405180910390f35b61022660048036038101906102219190611dcb565b610522565b6040516102339190611ef8565b60405180910390f35b61024461062f565b005b610260600480360381019061025b9190611f18565b610642565b005b61026a61069b565b6040516102779190611fa7565b60405180910390f35b61029a60048036038101906102959190611fea565b6106c3565b005b6102b660048036038101906102b19190612028565b6106d9565b6040516102c3919061187d565b60405180910390f35b6102e660048036038101906102e19190612066565b610767565b005b61030260048036038101906102fd91906120f9565b61080e565b005b5f805f8381526020019081526020015f205f8473ffffffffffffffffffffffffffffffffffffffff1673ffffffffffffffffffffffffffffffffffffffff1681526020019081526020015f2054905092915050565b5f7fd9b67a26000000000000000000000000000000000000000000000000000000007bffffffffffffffffffffffffffffffffffffffffffffffffffffffff1916827bffffffffffffffffffffffffffffffffffffffffffffffffffffffff1916148061042357507f0e89341c000000000000000000000000000000000000000000000000000000007bffffffffffffffffffffffffffffffffffffffffffffffffffffffff1916827bffffffffffffffffffffffffffffffffffffffffffffffffffffffff1916145b80610433575061043282610892565b5b9050919050565b6104426108fb565b61044b81610982565b50565b606061045982610995565b9050919050565b60045481565b5f61046f610a27565b90508073ffffffffffffffffffffffffffffffffffffffff168673ffffffffffffffffffffffffffffffffffffffff16141580156104b457506104b286826106d9565b155b156104f85780866040517fe237d9220000000000000000000000000000000000000000000000000000000081526004016104ef929190612124565b60405180910390fd5b6105058686868686610a2e565b505050505050565b6005602052805f5260405f205f915090505481565b6060815183511461056e57815183516040517f5b05999100000000000000000000000000000000000000000000000000000000815260040161056592919061214b565b60405180910390fd5b5f835167ffffffffffffffff81111561058a576105896118ae565b5b6040519080825280602002602001820160405280156105b85781602001602082028036833780820191505090505b5090505f5b8451811015610624576105f46105dc8287610b2290919063ffffffff16565b6105ef8387610b3590919063ffffffff16565b610304565b82828151811061060757610606612172565b5b6020026020010181815250508061061d906121cc565b90506105bd565b508091505092915050565b6106376108fb565b6106405f610b48565b565b61064a6108fb565b61065684848484610c0b565b8160045f8282546106679190612213565b925050819055508160055f8581526020019081526020015f205f82825461068e9190612213565b9250508190555050505050565b5f60035f9054906101000a900473ffffffffffffffffffffffffffffffffffffffff16905090565b6106d56106ce610a27565b8383610ca0565b5050565b5f60015f8473ffffffffffffffffffffffffffffffffffffffff1673ffffffffffffffffffffffffffffffffffffffff1681526020019081526020015f205f8373ffffffffffffffffffffffffffffffffffffffff1673ffffffffffffffffffffffffffffffffffffffff1681526020019081526020015f205f9054906101000a900460ff16905092915050565b5f610770610a27565b90508073ffffffffffffffffffffffffffffffffffffffff168673ffffffffffffffffffffffffffffffffffffffff16141580156107b557506107b386826106d9565b155b156107f95780866040517fe237d9220000000000000000000000000000000000000000000000000000000081526004016107f0929190612124565b60405180910390fd5b6108068686868686610e09565b505050505050565b6108166108fb565b5f73ffffffffffffffffffffffffffffffffffffffff168173ffffffffffffffffffffffffffffffffffffffff1603610886575f6040517f1e4fbdf700000000000000000000000000000000000000000000000000000000815260040161087d9190611fa7565b60405180910390fd5b61088f81610b48565b50565b5f7f01ffc9a7000000000000000000000000000000000000000000000000000000007bffffffffffffffffffffffffffffffffffffffffffffffffffffffff1916827bffffffffffffffffffffffffffffffffffffffffffffffffffffffff1916149050919050565b610903610a27565b73ffffffffffffffffffffffffffffffffffffffff1661092161069b565b73ffffffffffffffffffffffffffffffffffffffff161461098057610944610a27565b6040517f118cdaa70000000000000000000000000000000000000000000000000000000081526004016109779190611fa7565b60405180910390fd5b565b80600290816109919190612440565b5050565b6060600280546109a490612273565b80601f01602080910402602001604051908101604052809291908181526020018280546109d090612273565b8015610a1b5780601f106109f257610100808354040283529160200191610a1b565b820191905f5260205f20905b8154815290600101906020018083116109fe57829003601f168201915b50505050509050919050565b5f33905090565b5f73ffffffffffffffffffffffffffffffffffffffff168473ffffffffffffffffffffffffffffffffffffffff1603610a9e575f6040517f57f447ce000000000000000000000000000000000000000000000000000000008152600401610a959190611fa7565b60405180910390fd5b5f73ffffffffffffffffffffffffffffffffffffffff168573ffffffffffffffffffffffffffffffffffffffff1603610b0e575f6040517f01a83514000000000000000000000000000000000000000000000000000000008152600401610b059190611fa7565b60405180910390fd5b610b1b8585858585610f0f565b5050505050565b5f60208202602084010151905092915050565b5f60208202602084010151905092915050565b5f60035f9054906101000a900473ffffffffffffffffffffffffffffffffffffffff1690508160035f6101000a81548173ffffffffffffffffffffffffffffffffffffffff021916908373ffffffffffffffffffffffffffffffffffffffff1602179055508173ffffffffffffffffffffffffffffffffffffffff168173ffffffffffffffffffffffffffffffffffffffff167f8be0079c531659141344cd1fd0a4f28419497f9722a3daafe3b4186f6b6457e060405160405180910390a35050565b5f73ffffffffffffffffffffffffffffffffffffffff168473ffffffffffffffffffffffffffffffffffffffff1603610c7b575f6040517f57f447ce000000000000000000000000000000000000000000000000000000008152600401610c729190611fa7565b60405180910390fd5b5f80610c878585610fbb565b91509150610c985f87848487610f0f565b505050505050565b5f73ffffffffffffffffffffffffffffffffffffffff168273ffffffffffffffffffffffffffffffffffffffff1603610d10575f6040517fced3e100000000000000000000000000000000000000000000000000000000008152600401610d079190611fa7565b60405180910390fd5b8060015f8573ffffffffffffffffffffffffffffffffffffffff1673ffffffffffffffffffffffffffffffffffffffff1681526020019081526020015f205f8473ffffffffffffffffffffffffffffffffffffffff1673ffffffffffffffffffffffffffffffffffffffff1681526020019081526020015f205f6101000a81548160ff0219169083151502179055508173ffffffffffffffffffffffffffffffffffffffff168373ffffffffffffffffffffffffffffffffffffffff167f17307eab39ab6107e8899845ad3d59bd9653f200f220920489ca2b5937696c3183604051610dfc919061187d565b60405180910390a3505050565b5f73ffffffffffffffffffffffffffffffffffffffff168473ffffffffffffffffffffffffffffffffffffffff1603610e79575f6040517f57f447ce000000000000000000000000000000000000000000000000000000008152600401610e709190611fa7565b60405180910390fd5b5f73ffffffffffffffffffffffffffffffffffffffff168573ffffffffffffffffffffffffffffffffffffffff1603610ee9575f6040517f01a83514000000000000000000000000000000000000000000000000000000008152600401610ee09190611fa7565b60405180910390fd5b5f80610ef58585610fbb565b91509150610f068787848487610f0f565b50505050505050565b610f1b85858585610feb565b5f73ffffffffffffffffffffffffffffffffffffffff168473ffffffffffffffffffffffffffffffffffffffff1614610fb4575f610f57610a27565b90506001845103610fa3575f610f765f86610b3590919063ffffffff16565b90505f610f8c5f86610b3590919063ffffffff16565b9050610f9c838989858589611381565b5050610fb2565b610fb1818787878787611530565b5b505b5050505050565b60608060405191506001825283602083015260408201905060018152826020820152604081016040529250929050565b805182511461103557815181516040517f5b05999100000000000000000000000000000000000000000000000000000000815260040161102c92919061214b565b60405180910390fd5b5f61103e610a27565b90505f5b8351811015611240575f61105f8286610b3590919063ffffffff16565b90505f6110758386610b3590919063ffffffff16565b90505f73ffffffffffffffffffffffffffffffffffffffff168873ffffffffffffffffffffffffffffffffffffffff1614611198575f805f8481526020019081526020015f205f8a73ffffffffffffffffffffffffffffffffffffffff1673ffffffffffffffffffffffffffffffffffffffff1681526020019081526020015f205490508181101561114457888183856040517f03dee4c500000000000000000000000000000000000000000000000000000000815260040161113b949392919061250f565b60405180910390fd5b8181035f808581526020019081526020015f205f8b73ffffffffffffffffffffffffffffffffffffffff1673ffffffffffffffffffffffffffffffffffffffff1681526020019081526020015f2081905550505b5f73ffffffffffffffffffffffffffffffffffffffff168773ffffffffffffffffffffffffffffffffffffffff161461122d57805f808481526020019081526020015f205f8973ffffffffffffffffffffffffffffffffffffffff1673ffffffffffffffffffffffffffffffffffffffff1681526020019081526020015f205f8282546112259190612213565b925050819055505b505080611239906121cc565b9050611042565b5060018351036112fb575f61125e5f85610b3590919063ffffffff16565b90505f6112745f85610b3590919063ffffffff16565b90508573ffffffffffffffffffffffffffffffffffffffff168773ffffffffffffffffffffffffffffffffffffffff168473ffffffffffffffffffffffffffffffffffffffff167fc3d58168c5ae7397731d063d5bbf3d657854427343f4c083240f7aacaa2d0f6285856040516112ec92919061214b565b60405180910390a4505061137a565b8373ffffffffffffffffffffffffffffffffffffffff168573ffffffffffffffffffffffffffffffffffffffff168273ffffffffffffffffffffffffffffffffffffffff167f4a39dc06d4c0dbc64b70af90fd698a233a518aa5d07e595d983b8c0526c8f7fb8686604051611371929190612552565b60405180910390a45b5050505050565b5f8473ffffffffffffffffffffffffffffffffffffffff163b1115611528578373ffffffffffffffffffffffffffffffffffffffff1663f23a6e6187878686866040518663ffffffff1660e01b81526004016113e19594939291906125d9565b6020604051808303815f875af192505050801561141c57506040513d601f19601f820116820180604052508101906114199190612645565b60015b61149d573d805f811461144a576040519150601f19603f3d011682016040523d82523d5f602084013e61144f565b606091505b505f81510361149557846040517f57f447ce00000000000000000000000000000000000000000000000000000000815260040161148c9190611fa7565b60405180910390fd5b805181602001fd5b63f23a6e6160e01b7bffffffffffffffffffffffffffffffffffffffffffffffffffffffff1916817bffffffffffffffffffffffffffffffffffffffffffffffffffffffff19161461152657846040517f57f447ce00000000000000000000000000000000000000000000000000000000815260040161151d9190611fa7565b60405180910390fd5b505b505050505050565b5f8473ffffffffffffffffffffffffffffffffffffffff163b11156116d7578373ffffffffffffffffffffffffffffffffffffffff1663bc197c8187878686866040518663ffffffff1660e01b8152600401611590959493929190612670565b6020604051808303815f875af19250505080156115cb57506040513d601f19601f820116820180604052508101906115c89190612645565b60015b61164c573d805f81146115f9576040519150601f19603f3d011682016040523d82523d5f602084013e6115fe565b606091505b505f81510361164457846040517f57f447ce00000000000000000000000000000000000000000000000000000000815260040161163b9190611fa7565b60405180910390fd5b805181602001fd5b63bc197c8160e01b7bffffffffffffffffffffffffffffffffffffffffffffffffffffffff1916817bffffffffffffffffffffffffffffffffffffffffffffffffffffffff1916146116d557846040517f57f447ce0000000000000000000000000000000000000000000000000000000081526004016116cc9190611fa7565b60405180910390fd5b505b505050505050565b5f604051905090565b5f80fd5b5f80fd5b5f73ffffffffffffffffffffffffffffffffffffffff82169050919050565b5f611719826116f0565b9050919050565b6117298161170f565b8114611733575f80fd5b50565b5f8135905061174481611720565b92915050565b5f819050919050565b61175c8161174a565b8114611766575f80fd5b50565b5f8135905061177781611753565b92915050565b5f8060408385031215611793576117926116e8565b5b5f6117a085828601611736565b92505060206117b185828601611769565b9150509250929050565b6117c48161174a565b82525050565b5f6020820190506117dd5f8301846117bb565b92915050565b5f7fffffffff0000000000000000000000000000000000000000000000000000000082169050919050565b611817816117e3565b8114611821575f80fd5b50565b5f813590506118328161180e565b92915050565b5f6020828403121561184d5761184c6116e8565b5b5f61185a84828501611824565b91505092915050565b5f8115159050919050565b61187781611863565b82525050565b5f6020820190506118905f83018461186e565b92915050565b5f80fd5b5f80fd5b5f601f19601f8301169050919050565b7f4e487b71000000000000000000000000000000000000000000000000000000005f52604160045260245ffd5b6118e48261189e565b810181811067ffffffffffffffff82111715611903576119026118ae565b5b80604052505050565b5f6119156116df565b905061192182826118db565b919050565b5f67ffffffffffffffff8211156119405761193f6118ae565b5b6119498261189e565b9050602081019050919050565b828183375f83830152505050565b5f61197661197184611926565b61190c565b9050828152602081018484840111156119925761199161189a565b5b61199d848285611956565b509392505050565b5f82601f8301126119b9576119b8611896565b5b81356119c9848260208601611964565b91505092915050565b5f602082840312156119e7576119e66116e8565b5b5f82013567ffffffffffffffff811115611a0457611a036116ec565b5b611a10848285016119a5565b91505092915050565b5f60208284031215611a2e57611a2d6116e8565b5b5f611a3b84828501611769565b91505092915050565b5f81519050919050565b5f82825260208201905092915050565b5f5b83811015611a7b578082015181840152602081019050611a60565b5f8484015250505050565b5f611a9082611a44565b611a9a8185611a4e565b9350611aaa818560208601611a5e565b611ab38161189e565b840191505092915050565b5f6020820190508181035f830152611ad68184611a86565b905092915050565b5f67ffffffffffffffff821115611af857611af76118ae565b5b602082029050602081019050919050565b5f80fd5b5f611b1f611b1a84611ade565b61190c565b90508083825260208201905060208402830185811115611b4257611b41611b09565b5b835b81811015611b6b5780611b578882611769565b845260208401935050602081019050611b44565b5050509392505050565b5f82601f830112611b8957611b88611896565b5b8135611b99848260208601611b0d565b91505092915050565b5f67ffffffffffffffff821115611bbc57611bbb6118ae565b5b611bc58261189e565b9050602081019050919050565b5f611be4611bdf84611ba2565b61190c565b905082815260208101848484011115611c0057611bff61189a565b5b611c0b848285611956565b509392505050565b5f82601f830112611c2757611c26611896565b5b8135611c37848260208601611bd2565b91505092915050565b5f805f805f60a08688031215611c5957611c586116e8565b5b5f611c6688828901611736565b9550506020611c7788828901611736565b945050604086013567ffffffffffffffff811115611c9857611c976116ec565b5b611ca488828901611b75565b935050606086013567ffffffffffffffff811115611cc557611cc46116ec565b5b611cd188828901611b75565b925050608086013567ffffffffffffffff811115611cf257611cf16116ec565b5b611cfe88828901611c13565b9150509295509295909350565b5f67ffffffffffffffff821115611d2557611d246118ae565b5b602082029050602081019050919050565b5f611d48611d4384611d0b565b61190c565b90508083825260208201905060208402830185811115611d6b57611d6a611b09565b5b835b81811015611d945780611d808882611736565b845260208401935050602081019050611d6d565b5050509392505050565b5f82601f830112611db257611db1611896565b5b8135611dc2848260208601611d36565b91505092915050565b5f8060408385031215611de157611de06116e8565b5b5f83013567ffffffffffffffff811115611dfe57611dfd6116ec565b5b611e0a85828601611d9e565b925050602083013567ffffffffffffffff811115611e2b57611e2a6116ec565b5b611e3785828601611b75565b9150509250929050565b5f81519050919050565b5f82825260208201905092915050565b5f819050602082019050919050565b611e738161174a565b82525050565b5f611e848383611e6a565b60208301905092915050565b5f602082019050919050565b5f611ea682611e41565b611eb08185611e4b565b9350611ebb83611e5b565b805f5b83811015611eeb578151611ed28882611e79565b9750611edd83611e90565b925050600181019050611ebe565b5085935050505092915050565b5f6020820190508181035f830152611f108184611e9c565b905092915050565b5f805f8060808587031215611f3057611f2f6116e8565b5b5f611f3d87828801611736565b9450506020611f4e87828801611769565b9350506040611f5f87828801611769565b925050606085013567ffffffffffffffff811115611f8057611f7f6116ec565b5b611f8c87828801611c13565b91505092959194509250565b611fa18161170f565b82525050565b5f602082019050611fba5f830184611f98565b92915050565b611fc981611863565b8114611fd3575f80fd5b50565b5f81359050611fe481611fc0565b92915050565b5f806040838503121561200057611fff6116e8565b5b5f61200d85828601611736565b925050602061201e85828601611fd6565b9150509250929050565b5f806040838503121561203e5761203d6116e8565b5b5f61204b85828601611736565b925050602061205c85828601611736565b9150509250929050565b5f805f805f60a0868803121561207f5761207e6116e8565b5b5f61208c88828901611736565b955050602061209d88828901611736565b94505060406120ae88828901611769565b93505060606120bf88828901611769565b925050608086013567ffffffffffffffff8111156120e0576120df6116ec565b5b6120ec88828901611c13565b9150509295509295909350565b5f6020828403121561210e5761210d6116e8565b5b5f61211b84828501611736565b91505092915050565b5f6040820190506121375f830185611f98565b6121446020830184611f98565b9392505050565b5f60408201905061215e5f8301856117bb565b61216b60208301846117bb565b9392505050565b7f4e487b71000000000000000000000000000000000000000000000000000000005f52603260045260245ffd5b7f4e487b71000000000000000000000000000000000000000000000000000000005f52601160045260245ffd5b5f6121d68261174a565b91507fffffffffffffffffffffffffffffffffffffffffffffffffffffffffffffffff82036122085761220761219f565b5b600182019050919050565b5f61221d8261174a565b91506122288361174a565b92508282019050808211156122405761223f61219f565b5b92915050565b7f4e487b71000000000000000000000000000000000000000000000000000000005f52602260045260245ffd5b5f600282049050600182168061228a57607f821691505b60208210810361229d5761229c612246565b5b50919050565b5f819050815f5260205f209050919050565b5f6020601f8301049050919050565b5f82821b905092915050565b5f600883026122ff7fffffffffffffffffffffffffffffffffffffffffffffffffffffffffffffffff826122c4565b61230986836122c4565b95508019841693508086168417925050509392505050565b5f819050919050565b5f61234461233f61233a8461174a565b612321565b61174a565b9050919050565b5f819050919050565b61235d8361232a565b6123716123698261234b565b8484546122d0565b825550505050565b5f90565b612385612379565b612390818484612354565b505050565b5b818110156123b3576123a85f8261237d565b600181019050612396565b5050565b601f8211156123f8576123c9816122a3565b6123d2846122b5565b810160208510156123e1578190505b6123f56123ed856122b5565b830182612395565b50505b505050565b5f82821c905092915050565b5f6124185f19846008026123fd565b1980831691505092915050565b5f6124308383612409565b9150826002028217905092915050565b61244982611a44565b67ffffffffffffffff811115612462576124616118ae565b5b61246c8254612273565b6124778282856123b7565b5f60209050601f8311600181146124a8575f8415612496578287015190505b6124a08582612425565b865550612507565b601f1984166124b6866122a3565b5f5b828110156124dd578489015182556001820191506020850194506020810190506124b8565b868310156124fa57848901516124f6601f891682612409565b8355505b6001600288020188555050505b505050505050565b5f6080820190506125225f830187611f98565b61252f60208301866117bb565b61253c60408301856117bb565b61254960608301846117bb565b95945050505050565b5f6040820190508181035f83015261256a8185611e9c565b9050818103602083015261257e8184611e9c565b90509392505050565b5f81519050919050565b5f82825260208201905092915050565b5f6125ab82612587565b6125b58185612591565b93506125c5818560208601611a5e565b6125ce8161189e565b840191505092915050565b5f60a0820190506125ec5f830188611f98565b6125f96020830187611f98565b61260660408301866117bb565b61261360608301856117bb565b818103608083015261262581846125a1565b90509695505050505050565b5f8151905061263f8161180e565b92915050565b5f6020828403121561265a576126596116e8565b5b5f61266784828501612631565b91505092915050565b5f60a0820190506126835f830188611f98565b6126906020830187611f98565b81810360408301526126a28186611e9c565b905081810360608301526126b68185611e9c565b905081810360808301526126ca81846125a1565b9050969550505050505056fea2646970667358221220a5c5b98717f9ac5d23c72d1e8dea7517c5208171988996e5902ab385c7a58bd564736f6c63430008150033",
  "immutableReferences": {},
  "source": "// Place this content into: ~/SodaPop/contracts/HorseToken.sol\n\n// SPDX-License-Identifier: MIT\npragma solidity ^0.8.0;\n\nimport \"@openzeppelin/contracts/token/ERC1155/ERC1155.sol\";\nimport \"@openzeppelin/contracts/access/Ownable.sol\";\n\ncontract HorseToken is ERC1155, Ownable {\n    uint256 public totalSupply;\n    mapping(uint256 => uint256) public horseSupply;\n\n    constructor(string memory uri) ERC1155(uri) Ownable(msg.sender) {\n        totalSupply = 0;\n    }\n\n    function mint(\n        address to,\n        uint256 id,\n        uint256 amount,\n        bytes memory data\n    ) external onlyOwner {\n        _mint(to, id, amount, data);\n        totalSupply += amount;\n        horseSupply[id] += amount;\n    }\n\n    function uri(uint256 _id) public view override returns (string memory) {\n        return super.uri(_id);\n    }\n\n    function setURI(string memory newuri) external onlyOwner {\n        _setURI(newuri);\n    }\n}\n",
  "sourcePath": "/Users/alexanderhaire/SodaPop/contracts/HorseToken.sol",
  "compiler": {
    "name": "solc",
    "version": "0.8.21+commit.d9974bed.Emscripten.clang"
  },
  "schemaVersion": "3.4.16",
  "updatedAt": "2025-06-04T02:02:56.716Z",
  "networkType": "ethereum",
  "devdoc": {
    "errors": {
      "ERC1155InsufficientBalance(address,uint256,uint256,uint256)": [
        {
          "details": "Indicates an error related to the current `balance` of a `sender`. Used in transfers.",
          "params": {
            "balance": "Current balance for the interacting account.",
            "needed": "Minimum amount required to perform a transfer.",
            "sender": "Address whose tokens are being transferred.",
            "tokenId": "Identifier number of a token."
          }
        }
      ],
      "ERC1155InvalidApprover(address)": [
        {
          "details": "Indicates a failure with the `approver` of a token to be approved. Used in approvals.",
          "params": {
            "approver": "Address initiating an approval operation."
          }
        }
      ],
      "ERC1155InvalidArrayLength(uint256,uint256)": [
        {
          "details": "Indicates an array length mismatch between ids and values in a safeBatchTransferFrom operation. Used in batch transfers.",
          "params": {
            "idsLength": "Length of the array of token identifiers",
            "valuesLength": "Length of the array of token amounts"
          }
        }
      ],
      "ERC1155InvalidOperator(address)": [
        {
          "details": "Indicates a failure with the `operator` to be approved. Used in approvals.",
          "params": {
            "operator": "Address that may be allowed to operate on tokens without being their owner."
          }
        }
      ],
      "ERC1155InvalidReceiver(address)": [
        {
          "details": "Indicates a failure with the token `receiver`. Used in transfers.",
          "params": {
            "receiver": "Address to which tokens are being transferred."
          }
        }
      ],
      "ERC1155InvalidSender(address)": [
        {
          "details": "Indicates a failure with the token `sender`. Used in transfers.",
          "params": {
            "sender": "Address whose tokens are being transferred."
          }
        }
      ],
      "ERC1155MissingApprovalForAll(address,address)": [
        {
          "details": "Indicates a failure with the `operator`s approval. Used in transfers.",
          "params": {
            "operator": "Address that may be allowed to operate on tokens without being their owner.",
            "owner": "Address of the current owner of a token."
          }
        }
      ],
      "OwnableInvalidOwner(address)": [
        {
          "details": "The owner is not a valid owner account. (eg. `address(0)`)"
        }
      ],
      "OwnableUnauthorizedAccount(address)": [
        {
          "details": "The caller account is not authorized to perform an operation."
        }
      ]
    },
    "events": {
      "ApprovalForAll(address,address,bool)": {
        "details": "Emitted when `account` grants or revokes permission to `operator` to transfer their tokens, according to `approved`."
      },
      "TransferBatch(address,address,address,uint256[],uint256[])": {
        "details": "Equivalent to multiple {TransferSingle} events, where `operator`, `from` and `to` are the same for all transfers."
      },
      "TransferSingle(address,address,address,uint256,uint256)": {
        "details": "Emitted when `value` amount of tokens of type `id` are transferred from `from` to `to` by `operator`."
      },
      "URI(string,uint256)": {
        "details": "Emitted when the URI for token type `id` changes to `value`, if it is a non-programmatic URI. If an {URI} event was emitted for `id`, the standard https://eips.ethereum.org/EIPS/eip-1155#metadata-extensions[guarantees] that `value` will equal the value returned by {IERC1155MetadataURI-uri}."
      }
    },
    "kind": "dev",
    "methods": {
      "balanceOf(address,uint256)": {
        "details": "See {IERC1155-balanceOf}."
      },
      "balanceOfBatch(address[],uint256[])": {
        "details": "See {IERC1155-balanceOfBatch}. Requirements: - `accounts` and `ids` must have the same length."
      },
      "isApprovedForAll(address,address)": {
        "details": "See {IERC1155-isApprovedForAll}."
      },
      "owner()": {
        "details": "Returns the address of the current owner."
      },
      "renounceOwnership()": {
        "details": "Leaves the contract without owner. It will not be possible to call `onlyOwner` functions. Can only be called by the current owner. NOTE: Renouncing ownership will leave the contract without an owner, thereby disabling any functionality that is only available to the owner."
      },
      "safeBatchTransferFrom(address,address,uint256[],uint256[],bytes)": {
        "details": "See {IERC1155-safeBatchTransferFrom}."
      },
      "safeTransferFrom(address,address,uint256,uint256,bytes)": {
        "details": "See {IERC1155-safeTransferFrom}."
      },
      "setApprovalForAll(address,bool)": {
        "details": "See {IERC1155-setApprovalForAll}."
      },
      "supportsInterface(bytes4)": {
        "details": "See {IERC165-supportsInterface}."
      },
      "transferOwnership(address)": {
        "details": "Transfers ownership of the contract to a new account (`newOwner`). Can only be called by the current owner."
      }
    },
    "version": 1
  },
  "userdoc": {
    "kind": "user",
    "methods": {},
    "version": 1
  }
}